:020000040800F2
:1000000000000120C5020008CB020008CF02000852
:1000100041030008450300088D03000800000000AC
:10002000000000000000000000000000D5030008F0
:10003000D903000800000000DD0300081D130008BC
:10004000F1030008F1030008F1030008F1030008C0
:10005000F1030008F1030008A50D0008C10D000818
:10006000F1030008F1030008F1030008F1030008A0
:10007000F1030008F1030008F1030008F103000890
:10008000F1030008F1030008F1030008000000007C
:10009000000000000000000000000000F103000864
:1000A000F1030008F1030008F1030008F103000860
:1000B0003108000811090008E9090008F1030008E7
:1000C000F1030008F1030008F10300080D13000814
:1000D000F103000899350008F10300080000000052
:1000E000F1030008F1030008F1030008000000001C
:1000F000000000000000000000000000F103000804
:1001000000000000F1030008F1030008F1030008FB
:1001100000000000000000000000000000000000DF
:10012000F1030008F1030008F1030008F1030008DF
:10013000F1030008000000000000000000000000C3
:10014000000000000000000000000000F1030008B3
:10015000F1030008F1030008F1030008F1030008AF
:10016000F1030008F1030008000000000000000097
:10017000000000000000000000000000000000007F
:1001800000000000F1030008000000000000000073
:10019000F103000800B583B000F0BAF9384B394AD2
:1001A0001360394A1360394900E02146384B9942BF
:1001B0000BD20A684B6801F10C0488689842F4D9A4
:1001C0001168196004330432F8E72E4B1A68314B7A
:1001D0009A4200D0FEE72C4B1A682F4B9A42F9D175
:1001E000274B2E4A13602E4A13602E4B05E0002049
:1001F000106004329342FAD80B462B4A934204D241
:10020000194651F8082B5B68F4E7244B1B6813B9B7
:10021000234B1B6803B1FEE700F086F9694601A88D
:1002200000F022F9214C224BE41AA4100025AC4224
:1002300014DC204C204BE41AA4100025AC4213DC43
:100240000099019803F09AF805461C4C1C4BE41ADF
:10025000A410002C0EDC284600F0E2F8144B53F8F2
:10026000253098470135E2E7134B53F8253098477E
:100270000135E3E7013C124B53F824309847E8E797
:10028000BABADECA0000002078000020F40300089B
:100290000C04000878563412325476987C00002002
:1002A000300200200C0400081C0400081C04000894
:1002B0001C0400081C0400081C0400081C0400089E
:1002C0001C04000808B5FFF765FF00BEFEE71EF03E
:1002D000040F0CBFEFF30880EFF309807146414A29
:1002E00010472DE9F04182B004468846124B5E6B00
:1002F0009F6B9D6A1B6B13F0020F03D00E4BDB6AE2
:10030000002B0CDB0D4800F0B7F8CDF800803B4621
:1003100032462946204600F00BF900BEFEE74BF6B8
:10032000AB6100F07FF90028ECD0034B4FF00042A6
:10033000DA6202B0BDE8F08100ED00E0B43F0008F1
:1003400000BEFEE71EF0040F0CBFEFF30880EFF3D2
:1003500009807146244A10472DE9F04182B00446D5
:100360008846084B5E6B9F6B9D6A074800F084F8D7
:10037000CDF800803B4632462946204600F0D8F8AA
:1003800000BEFEE700ED00E0C43F00081EF0040FD1
:100390000CBFEFF30880EFF309807146134A104752
:1003A0002DE9F04182B004468846084B5E6B9F6B96
:1003B0009D6A074800F060F8CDF800803B46324661
:1003C0002946204600F0B4F800BEFEE700ED00E04C
:1003D000D03F000800BEFEE700BEFEE700BEFEE71D
:1003E00070470000E302000859030008A103000859
:0403F00000BEFEE766
:1003F4001CA50208000000207C0000201CA50208A7
:1004040000000010000000107C00002034020020D6
:080414000000001000000010C0
:10042000FEE7000008B503460C4A12685AB10B4AB1
:100430001068033323F003030344094A934206D8A8
:10044000064A136008BD054A06491160EFE703F04C
:10045000ADF80C2303604FF0FF30F3E7800000207D
:1004600000FC00203402002001230360014B0B60DC
:10047000704700BF040000200FB400B583B004AB88
:1004800053F8042B01938021064803F0C1F800289B
:1004900003DD0146034800F037F803B05DF804EBD4
:1004A00004B07047880000202DE9F04385B0044671
:1004B0000F4643560BB10E461EE004252846214642
:1004C000ABBE0446384605B0BDE8F08314F9011B05
:1004D00004AA1A4402F8101C0133AB42F6D304AA52
:1004E0001344002203F8102C4FF00408E94640465C
:1004F0004946ABBE8046761B002EE3D03546102E13
:1005000028BF10250023E8E708B5FFF7CDFF08BD99
:1005100008B500F097F8024A024B9A6008BD00BF88
:100520000000000800ED00E008B500F0ABF808BDE1
:10053000F8B504460D4617461E462748FFF79CFFB0
:1005400021682648FFF798FF61682548FFF794FF68
:10055000A1682448FFF790FFE1682348FFF78CFF6C
:1005600021692248FFF788FF61692148FFF784FF6E
:10057000A1692048FFF780FFE1691F48FFF77CFF72
:100580001E48FFF779FF29461D48FFF775FF1D4CF0
:10059000E16A1D48FFF770FF216B1C48FFF76CFFF5
:1005A000E16B1B48FFF768FF15F0800F0AD115F4C7
:1005B000004F0CD11748FFF75FFF06991648FFF769
:1005C0005BFFF8BD39461548FFF756FFEFE73146A8
:1005D0001348FFF751FFEDE7983E0008A83E0008DA
:1005E000B83E0008C83E0008D83E0008E83E0008B3
:1005F000F83E0008083F0008183F0008283F0008A0
:10060000343F000800ED00E0443F0008543F00087C
:10061000643F0008943F00089C3F0008743F0008B6
:10062000843F000883691A888A4201D000207047FD
:100630000268033A012A03D802338361012070471C
:10064000002070470C4B1A6842F001021A6000212A
:1006500099601A6822F0847222F480321A60074A84
:100660005A601A6822F480221A60D960044B4FF055
:1006700000629A60704700BF0038024010300024CA
:1006800000ED00E0224B9B6803F00C03042B14D018
:10069000082B16D01BB11F4B1F4A1A6002E01D4BDE
:1006A0001D4A1A601A4B9B68C3F303131B4AD15CA3
:1006B000184A1368CB4013607047164B184A1A60EB
:1006C000F0E7134B5A685B6803F03F0312F4800FA6
:1006D00013D0134AB2FBF3F20D4B5B68C3F38813DC
:1006E00003FB02F30A4A5268C2F30142013252008C
:1006F000B3FBF2F3074A1360D4E7074AB2FBF3F205
:10070000034B5B68C3F3881303FB02F3EAE700BF04
:10071000003802400C0000200024F400E03F0008F4
:1007200040787D0182B00023ADF8063012E0BDF8BC
:10073000043001339BB2ADF80430BDF804309BB2F5
:1007400040F66B429342F2D9BDF8063001339BB2BA
:10075000ADF80630BDF806309BB2834203D20023C9
:10076000ADF80430E9E702B070474FF080431A68F3
:1007700022F070021A601A6842F010021A601A68B9
:1007800042F080021A601A6842F004021A601A6885
:1007900022F002021A60DA6822F00102DA6007220F
:1007A0009A62704710B44000204BA3FB0023DB0B80
:1007B000C3EB0344041B19E04FF080434FF6FF7274
:1007C000DA625A6942F001025A611A6842F0010283
:1007D0001A604FF080431B6913F0010FF9D04FF0FE
:1007E0008042136923F0010313610B46591E002B4D
:1007F000E2D14FF08043DC625A6942F001025A6153
:100800001A6842F001021A604FF080431B6913F02E
:10081000010FF9D04FF080431A6922F001021A61EA
:100820001A6822F001021A6010BC70470180008033
:1008300008B5314B1B7833B1304B1A68304B1A6016
:100840002D4B00221A702E4B1B68012B11D92C4AFC
:100850001368013B13604FF080431A6922F00102D4
:100860001A614FF6FF72DA625A6942F001025A6168
:1008700008BD234B1B68012B26D0224B1B784BB99C
:100880004FF08043DA6822F00102DA601A6822F041
:1008900001021A601C4B1B6898474FF08042136995
:1008A00023F001031361154B1B68FBB113464FF690
:1008B000FF72DA624FF08042536943F001035361E3
:1008C0000D4B01221A70D3E70D4A1368013B1360E8
:1008D0004FF080431A6922F001021A610B4A126834
:1008E000DA625A6942F001025A61C1E7074B1A689D
:1008F0004FF08043DA62DDE7100000201001002095
:1009000008010020300100202C0100200C010020F3
:1009100008B52E4B1B7833B12D4B1A682D4B1A603E
:100920002A4B00221A702B4B1B68012B10D9294A25
:100930001368013B1360284B1A6922F001021A6107
:100940004FF6FF72DA625A6942F001025A6108BD3D
:10095000204B1B68012B23D0204B1B7843B91E4B27
:10096000DA6822F00102DA601A6822F001021A60E5
:100970001B4B1B689847184A136923F00103136146
:10098000134B1B68EBB113464FF6FF72DA62124A43
:10099000536943F0010353610C4B01221A70D6E7EF
:1009A0000C4A1368013B13600B4B1A6922F00102D9
:1009B0001A610C4A1268DA625A6942F001025A61FD
:1009C000C5E7084B1A68044BDA62E0E71100002023
:1009D0001C01002014010020000400403801002008
:1009E000340100201801002008B52E4B1B7833B1CC
:1009F0002D4B1A682D4B1A602A4B00221A702B4B74
:100A00001B68012B10D9294A1368013B1360284B3E
:100A10001A6922F001021A614FF6FF72DA625A690E
:100A200042F001025A6108BD204B1B68012B23D004
:100A3000204B1B7843B91E4BDA6822F00102DA60C2
:100A40001A6822F001021A601B4B1B689847184A6B
:100A5000136923F001031361134B1B68EBB11346B9
:100A60004FF6FF72DA62124A536943F00103536191
:100A70000C4B01221A70D6E70C4A1368013B136035
:100A80000B4B1A6922F001021A610C4A1268DA62F1
:100A90005A6942F001025A61C5E7084B1A68044BD3
:100AA000DA62E0E712000020280100202001002087
:100AB00000080040400100203C01002024010020EB
:100AC00010B5044601220221002000F079FA2046E8
:100AD00000F002FC10BD10B50446002202211046B1
:100AE00000F06EFA204600F0F7FB10BD08B50122B9
:100AF0001146002000F064FA642000F06DFC002232
:100B00000121104600F05CFA012000F065FC012292
:100B10001146002000F054FA642000F05DFC002231
:100B20000121104600F04CFA642000F055FC01222F
:100B30001146002000F044FA094800F04DFC112055
:100B4000FFF7C9FF074800F047FC3A20FFF7C3FF53
:100B50000520FFF7B5FF2920FFF7BDFF08BD00BF47
:100B6000C0D40100F049020038B505462A20FFF73D
:100B7000B2FF0020FFF7A4FF0020FFF7A1FF002035
:100B8000FFF79EFF7F20FFF79BFF2B20FFF7A3FFC0
:100B90000020FFF795FF0020FFF792FF0020FFF7EE
:100BA0008FFF9F20FFF78CFF2C20FFF794FF00247E
:100BB0000EE035F814006FEA1020C0B2FFF780FF96
:100BC00035F81400C043C0B2FFF77AFF0134A4B275
:100BD000B4F5A04FEDD338BD074B1B78DBB21C2B0F
:100BE00002D01D2B04D07047044B01221A707047AD
:100BF000024B02221A7070470C0200200F020020E4
:100C000008B5224B00221A70214B1A6842F20F736A
:100C10009A4205D91E4B1A6843F2B0639A4207D92B
:100C200000231C4A13701A4A13601B4A137008BD34
:100C300001220221002000F0C3F9002309E0012273
:100C400002FA01F11148027822EA0102027001332E
:100C5000DBB2072B17D8194603F111000C4A52F8E2
:100C60002020B2F5FA6FEAD3094A52F8200040F684
:100C7000FC029042E3D801229A40044801781143D3
:100C8000C9B20170E3E7FFF7A7FFC9E70C02002034
:100C9000440100200E0200200D02002038B50E4B4A
:100CA0001B7883B10D4C2578EDB200F08DFB0C4B19
:100CB00043F825000B490C4800F06EFB2378013304
:100CC000DBB2237038BD0749074800F065FB024BD3
:100CD00001221A70F6E700BF0E0200200D0200206C
:100CE00044010020010C000840420F00012910D0EF
:100CF00049B1022913D00F490B68012202FA00F012
:100D00001843086070470B4A936843F001039360EF
:100D1000F1E7084AD36843F00103D360EBE7054BE2
:100D2000DA6842F00102DA609A6842F001029A60E1
:100D3000E1E700BF003C0140014B1860704700BF75
:100D40001002002004282AD8DFE800F0030C29163E
:100D50002000134B1A6822F00F021A601A68114320
:100D6000196070470E4B1A6822F0F0021A601A6878
:100D700042EA011119607047094B1A6822F4706247
:100D80001A601A6842EA012119607047044B1A6818
:100D900022F470421A601A6842EA01311960704701
:100DA0000838014008B5044B1B689847034A53694B
:100DB00043F00103536108BD10020020003C0140D4
:100DC00008B5044B1B689847034A536943F0010375
:100DD000536108BD14020020003C014005282DD8B5
:100DE000DFE800F0030A11181F26154803684900C0
:100DF0008A401A43026070471248036849008A40DB
:100E00001A43026070471048036849008A401A4339
:100E1000026070470D48036849008A401A43026027
:100E200070470B48036849008A401A4302607047C4
:100E30000848036849008A401A430260704700BFAF
:100E4000000002400004024000080240000C024082
:100E500000100240001C0240052827D8DFE800F0FF
:100E600003090F151B21124843688A401A43426048
:100E70007047104843688A401A43426070470E48E2
:100E800043688A401A43426070470C4843688A406E
:100E90001A43426070470A4843688A401A434260D6
:100EA0007047084843688A401A434260704700BF51
:100EB000000002400004024000080240000C024012
:100EC00000100240001C024005282DD8DFE800F089
:100ED000030A11181F261548836849008A401A43DF
:100EE000826070471248836849008A401A438260D2
:100EF00070471048836849008A401A4382607047EF
:100F00000D48836849008A401A43826070470B4845
:100F1000836849008A401A438260704708488368A2
:100F200049008A401A438260704700BF00000240B7
:100F30000004024000080240000C02400010024081
:100F4000001C024005282DD8DFE800F0030A111824
:100F50001F261548C36849008A401A43C26070477B
:100F60001248C36849008A401A43C260704710485B
:100F7000C36849008A401A43C26070470D48C3687D
:100F800049008A401A43C26070470B48C368490051
:100F90008A401A43C26070470848C36849008A40C3
:100FA0001A43C260704700BF0000024000040240C4
:100FB00000080240000C024000100240001C0240E9
:100FC000012A06D0052870D8DFE800F03A434C55D6
:100FD0005E67052869D8DFE800F0030B131B232B9D
:100FE00032484369012202FA01F119434161704715
:100FF0002F484369012202FA01F119434161704708
:101000002C480368012202FA01F11943016070477C
:1010100029484369012202FA01F1194341617047ED
:1010200026484369012202FA01F1194341617047E0
:1010300023484369012202FA01F1194341617047D3
:101040001A484369012202FA01F123EA01014161D0
:10105000704717484369012202FA01F123EA0101AE
:101060004161704717484369012202FA01F123EAFE
:1010700001014161704710484369012202FA01F100
:1010800023EA0101416170470C484369012202FAD9
:1010900001F123EA010141617047094843690122D6
:1010A00002FA01F123EA01014161704700000240A8
:1010B0000004024014080240000C024000100240EC
:1010C000001C024000080240072936D8052879D8BC
:1010D000DFE800F0030B131B232B3B48036A890056
:1010E00002FA01F11943016270473848036A890026
:1010F00002FA01F11943016270473548036A890019
:1011000002FA01F11943016270473248036A89000B
:1011100002FA01F11943016270472F48036A8900FE
:1011200002FA01F11943016270472C48036A8900F1
:1011300002FA01F119430162704710B405280DD875
:10114000DFE800F0030E18222C361F4C606A01F015
:1011500007018B0002FA03F10143616210BC704782
:101160001A4C606A01F007039B0002FA03F1014385
:101170006162F3E7164C606A01F007039B0002FA14
:1011800003F101436162E9E7124C606A01F0070371
:101190009B0002FA03F101436162DFE70E4C606AD3
:1011A00001F007039B0002FA03F101436162D5E7F6
:1011B0000A48436A01F00701890002FA01F1194364
:1011C0004162CBE7704700BF0000024000040240CC
:1011D00000080240000C024000100240001C0240C7
:1011E00000F01F02400901239340024A42F82030D8
:1011F000704700BF00E100E0000240F0BF6040F433
:101200000030014B186070470CED00E003390429F1
:1012100004D8DFE801F0040D1115190000221201B5
:10122000D2B200F1604000F5614080F800237047C1
:1012300043EA4202D2B2F2E743EA8202D2B2EEE7D6
:1012400043EAC202D2B2EAE71A46E8E7032822D804
:10125000DFE800F0020A121A0F480368012202FABE
:1012600001F11943016070470C480368012202FA3A
:1012700001F119430160704709480368012202FA2D
:1012800001F119430160704706480368012202FA20
:1012900001F1194301607047303802403438024090
:1012A0004038024044380240064B1A6842F00102BE
:1012B0001A609A6822F001029A609A6822F002028B
:1012C0009A60704700380240024B40F247321A6081
:1012D000704700BF0030014010B50446002211469F
:1012E0001046FFF76DFE084BDC60074B9B6813F060
:1012F000800FFAD1012200210846FFF761FE024B60
:10130000D868C0B210BD00BF0030014008B5024B24
:101310001B68984708BD00BF2802002000B583B0B5
:10132000054B1B689847054B1B68C3F300438DF8BA
:10133000073003B05DF804FB2C02002010E000E051
:10134000014B00221A60704710E000E00138044BA6
:10135000586000229A601A6842F001021A607047D1
:1013600010E000E0044B1A6822F002021A601A68CA
:1013700042EA40001860704710E000E0024B186835
:10138000C0F30040704700BF10E000E0014B186060
:10139000704700BF2C020020094B1A6822F001029E
:1013A0001A6000229A60400058601A6842F00102F8
:1013B0001A60044A11601A6842F002021A6070470B
:1013C00010E000E02C020020024B58689B68C01A15
:1013D0004008704710E000E010B50446FFF7B0FF8A
:1013E0000020FFF7BFFF4FF47A7000FB04F0FFF717
:1013F000ADFFFFF7C3FF0028FBD010BD022805D0CA
:10140000062801D0024870470248704702487047DA
:10141000001001400014014000440140164B40F20E
:1014200083629A601A6942F480521A61DA686FF333
:101430000002DA60DA6842F00402DA60DA6842F048
:101440000802DA60DA6842F02002DA60DA686FF3E4
:101450008612DA60DA686FF38A22DA60DA686FF38C
:101460004922DA60DA686FF30C32DA60DA686FF317
:10147000CF32DA60704700BF0010014002280AD066
:1014800006280ED0012800D07047094AD36843F4DB
:101490000053D3607047074AD36843F40053D360C6
:1014A0007047054AD36843F40053D360ECE700BFAC
:1014B00000100140004401400014014008B5FFF74E
:1014C0009DFF4068C0B208BD38B505460F2419E03D
:1014D00045FA04F202F0010208210120FFF770FD35
:1014E000012209211046FFF76BFD0220FFF75AF990
:1014F000002209210120FFF763FD0220FFF752F9C6
:10150000013C24B2002CE3DA01220A211046FFF745
:1015100057FD0220FFF746F900220A210120FFF7BC
:101520004FFD0220FFF73EF938BD000010B54FF423
:101530007E40FFF7C9FF1420FFF734F94FF6415002
:10154000FFF7C2FF1420FFF72DF94FF64130FFF7E8
:10155000BBFF1420FFF726F94FF24970FFF7B4FFE5
:101560001420FFF71FF94EF64970FFF7ADFF142066
:10157000FFF718F94DF64970FFF7A6FF1420FFF7A3
:1015800011F94BF67F70FFF79FFF1420FFF70AF960
:101590004FF4FE40FFF798FFFD4C2046FFF702F99D
:1015A0004FF47E40FFF790FF1420FFF7FBF84FF653
:1015B000A050FFF789FF1420FFF7F4F84FF6A03092
:1015C000FFF782FF1420FFF7EDF84FF2A470FFF74A
:1015D0007BFF1420FFF7E6F84EF6A470FFF774FFC8
:1015E0001420FFF7DFF84DF6A470FFF76DFF14200D
:1015F000FFF7D8F84BF6BF70FFF766FF1420FFF730
:10160000D1F84FF4FE40FFF75FFF2046FFF7CAF81E
:101610004FF47E40FFF758FF1420FFF7C3F84FF652
:10162000D050FFF751FF1420FFF7BCF84FF65030B1
:10163000FFF74AFF1420FFF7B5F84FF25270FFF79B
:1016400043FF1420FFF7AEF84EF6D270FFF73CFFD1
:101650001420FFF7A7F84DF65270FFF735FF14205E
:10166000FFF7A0F84BF6DF70FFF72EFF1420FFF70F
:1016700099F84FF4FE40FFF727FF2046FFF792F856
:101680004FF47E40FFF720FF1420FFF78BF84FF652
:10169000E850FFF719FF1420FFF784F84FF62830C1
:1016A000FFF712FF1420FFF77DF84FF22970FFF7C4
:1016B0000BFF1420FFF776F84EF6E970FFF704FFF2
:1016C0001420FFF76FF84DF62970FFF7FDFE142088
:1016D000FFF768F84BF6EF70FFF7F6FE1420FFF700
:1016E00061F84FF4FE40FFF7EFFE2046FFF75AF88F
:1016F0004FF47E40FFF7E8FE1420FFF753F84FF653
:101700007450FFF7E1FE1420FFF74CF84FF6143049
:10171000FFF7DAFE1420FFF745F84FF21470FFF7D9
:10172000D3FE1420FFF73EF84EF67470FFF7CCFEA0
:101730001420FFF737F84DF61470FFF7C5FE14209C
:10174000FFF730F84BF67770FFF7BEFE1420FFF777
:1017500029F84FF4FE40FFF7B7FE2046FFF722F8C6
:101760004FF47E40FFF7B0FE1420FFF71BF84FF652
:10177000BA50FFF7A9FE1420FFF714F84FF68A308D
:10178000FFF7A2FE1420FFF70DF84FF28A70FFF763
:101790009BFE1420FFF706F84EF6BA70FFF794FE92
:1017A0001420FEF7FFFF4DF68A70FFF78DFE142020
:1017B000FEF7F8FF4BF6BB70FFF786FE1420FEF72E
:1017C000F1FF4FF4FE40FFF77FFE2046FEF7EAFFF1
:1017D0004FF47E40FFF778FE1420FEF7E3FF4FF64C
:1017E0005D50FFF771FE1420FEF7DCFF4FF6453029
:1017F000FFF76AFE1420FEF7D5FF4FF24570FFF7A2
:1018000063FE1420FEF7CEFF4EF65D70FFF75CFE20
:101810001420FEF7C7FF4DF64570FFF755FE142064
:10182000FEF7C0FF4BF6DD70FFF74EFE1420FEF70B
:10183000B9FF4FF4FE40FFF747FE2046FEF7B2FF28
:101840004FF47E40FFF740FE1420FEF7ABFF4FF64B
:101850002E50FFF739FE1420FEF7A4FF4FF622307A
:10186000FFF732FE1420FEF79DFF4FF22270FFF7C4
:101870002BFE1420FEF796FF4EF62E70FFF724FE87
:101880001420FEF78FFF4DF62270FFF71DFE142087
:10189000FEF788FF4BF6EE70FFF716FE1420FEF7FA
:1018A00081FF4FF4FE40FFF70FFE2046FEF77AFF60
:1018B0004FF47E40FFF708FE1420FEF773FF4FF64B
:1018C0001750FFF701FE1420FEF76CFF4FF61130A2
:1018D000FFF7FAFD1420FEF765FF4FF21170FFF7D6
:1018E000F3FD1420FEF75EFF4EF61770FFF7ECFDD8
:1018F0001420FEF757FF4DF61170FFF7E5FD142099
:10190000FEF750FF4BF67770FFF7DEFD1420FEF771
:1019100049FF4FF4FE40FFF7D7FD2046FEF742FF98
:101920004FF47E40FFF7D0FD1420FEF73BFF4FF64B
:101930000B50FFF7C9FD1420FEF734FF4FF6883037
:10194000FFF7C2FD1420FEF72DFF4FF28870FFF75E
:10195000BBFD1420FEF726FF4EF68870FFF7B4FD9E
:101960001420FEF71FFF4DF68B70FFF7ADFD14201E
:10197000FEF718FF4BF68870FFF7A6FD1420FEF760
:1019800011FF47F63B70FFF79FFD204602E000BFC6
:10199000F0490200FEF706FF4FF47E40FFF794FD8A
:1019A0001420FEF7FFFE4FF63C50FFF78DFD14208C
:1019B000FEF7F8FE4FF60230FFF786FD1420FEF723
:1019C000F1FE4FF20170FFF77FFD1420FEF7EAFEF3
:1019D0004EF60170FFF778FD1420FEF7E3FE4DF69A
:1019E0000270FFF771FD1420FEF7DCFE4BF63C7031
:1019F000FFF76AFD1420FEF7D5FE4FF4FE40FFF717
:101A000063FD2046FEF7CEFE4FF47E40FFF75CFDFF
:101A10001420FEF7C7FE4FF61E50FFF755FD1420A9
:101A2000FEF7C0FE4FF60130FFF74EFD1420FEF723
:101A3000B9FE4FF28070FFF747FD1420FEF7B2FEAB
:101A40004EF68070FFF740FD1420FEF7ABFE4DF61A
:101A50000170FFF739FD1420FEF7A4FE4BF61E704F
:101A6000FFF732FD1420FEF79DFE4FF4FE40FFF716
:101A70002BFD2046FEF796FE4FF47E40FFF724FD37
:101A80001420FEF78FFE4FF60F50FFF71DFD1420B8
:101A9000FEF788FE4FF68030FFF716FD1420FEF7A4
:101AA00081FE4FF22070FFF70FFD1420FEF77AFE43
:101AB0004EF62070FFF708FD1420FEF773FE4DF67A
:101AC0008070FFF701FD1420FEF76CFE4BF60F70DF
:101AD000FFF7FAFC1420FEF765FE4FF4FE40FFF717
:101AE000F3FC2046FEF75EFE4FF47E40FFF7ECFC71
:101AF0001420FEF757FE4FF68750FFF7E5FC142041
:101B0000FEF750FE4FF62030FFF7DEFC1420FEF704
:101B100049FE4FF22070FFF7D7FC1420FEF742FE7B
:101B20004EF62070FFF7D0FC1420FEF73BFE4DF67A
:101B30002070FFF7C9FC1420FEF734FE4BF68770C7
:101B4000FFF7C2FC1420FEF72DFE4FF4FE40FFF716
:101B5000BBFC2046FEF726FE4FF47E40FFF7B4FCA8
:101B60001420FEF71FFE4FF6C350FFF7ADFC142004
:101B7000FEF718FE4FF62030FFF7A6FC1420FEF704
:101B800011FE4FF21070FFF79FFC1420FEF70AFEC3
:101B90004EF61070FFF798FC1420FEF703FE4DF68A
:101BA0002070FFF791FC1420FEF7FCFD4BF6C3708C
:101BB000FFF78AFC1420FEF7F5FD4FF4FE40FFF717
:101BC00083FC2046FEF7EEFD4FF47E40FFF77CFCE1
:101BD0001420FEF7E7FD4FF6E150FFF775FC1420E7
:101BE000FEF7E0FD4FF61030FFF76EFC1420FEF715
:101BF000D9FD4FF20870FFF767FC1420FEF7D2FD05
:101C00004EF60870FFF760FC1420FEF7CBFD4DF692
:101C10001070FFF759FC1420FEF7C4FD4BF6E1707D
:101C2000FFF752FC1420FEF7BDFD4FF4FE40FFF716
:101C30004BFC2046FEF7B6FD4FF47E40FFF744FC18
:101C40001420FEF7AFFD4FF6F050FFF73DFC1420D7
:101C5000FEF7A8FD4FF60830FFF736FC1420FEF71C
:101C6000A1FD4FF20470FFF72FFC1420FEF79AFD40
:101C70004EF60470FFF728FC1420FEF793FD4DF696
:101C80000870FFF721FC1420FEF78CFD4BF6F07076
:101C9000FFF71AFC1420FEF785FD4FF4FE40FFF716
:101CA00013FC2046FEF77EFD4FF47E40FFF70CFC50
:101CB0001420FEF777FD4FF67850FFF705FC14204F
:101CC000FEF770FD4FF60430FFF7FEFB1420FEF721
:101CD00069FD4FF20270FFF7F7FB1420FEF762FD7B
:101CE0004EF60270FFF7F0FB1420FEF75BFD4DF699
:101CF0000470FFF7E9FB1420FEF754FD4BF67870F3
:101D0000FFF7E2FB1420FEF74DFD4FF4FE40FFF716
:101D1000DBFB2046FEF746FD4FF47E40FFF7D4FB89
:101D20001420FEF73FFD4FF60E50FFF7CDFB1420B9
:101D3000FEF738FD4FF61130FFF7C6FB1420FEF713
:101D400031FD4FF21170FFF7BFFB1420FEF72AFDA3
:101D50004EF61170FFF7B8FB1420FEF723FD4DF689
:101D60001170FFF7B1FB1420FEF71CFD4BF60E704F
:101D7000FFF7AAFB1420FEF715FD4FF4FE40FFF716
:101D8000A3FB2046FEF70EFD4FF47E40FFF79CFBC1
:101D90001420FEF707FD4FF60750FFF795FB1420C0
:101DA000FEF700FD4FF68830FFF78EFB1420FEF79C
:101DB000F9FC4FF28870FFF787FB1420FEF7F2FC66
:101DC0004EF68870FFF780FB1420FEF7EBFC4DF613
:101DD0008870FFF779FB1420FEF7E4FC4BF60770E0
:101DE000FFF772FB1420FEF7DDFC4FF4FE40FFF717
:101DF0006BFB2046FEF7D6FC4FF47E40FFF764FBFA
:101E00001420FEF7CFFC4FF68350FFF75DFB142044
:101E1000FEF7C8FC4420FFF757FB1420FEF7C2FC76
:101E20004FF24470FFF750FB1420FEF7BBFC4EF658
:101E30004470FFF749FB1420FEF7B4FC4DF64470E4
:101E4000FFF742FB1420FEF7ADFC4BF68370FFF763
:101E50003BFB1420FEF7A6FC4FF4FE40FFF734FBDB
:101E60002046FEF79FFC4FF47E40FFF72DFB142029
:101E7000FEF798FC4FF6C150FFF726FB1420FEF743
:101E800091FC4FF62230FFF71FFB1420FEF78AFC6F
:101E90004FF22270FFF718FB1420FEF783FC4EF67A
:101EA0002270FFF711FB1420FEF77CFC4DF6227028
:101EB000FFF70AFB1420FEF775FC4BF6C170FFF725
:101EC00003FB1420FEF76EFC4FF4FE40FFF7FCFA14
:101ED0002046FEF767FC4FF47E40FFF7F5FA14202A
:101EE000FEF760FC4FF6E050FFF7EEFA1420FEF725
:101EF00059FC4FF61130FFF7E7FA1420FEF752FCB9
:101F00004FF21170FFF7E0FA1420FEF74BFC4EF68B
:101F10001170FFF7D9FA1420FEF744FC4DF611704A
:101F2000FFF7D2FA1420FEF73DFC4BF6E070FFF706
:101F3000CBFA1420FEF736FC4FF4FE40FFF7C4FA4C
:101F40002046FEF72FFC4FF47E40FFF7BDFA142029
:101F5000FEF728FC4FF67050FFF7B6FA1420FEF794
:101F600021FC4FF68830FFF7AFFA1420FEF71AFC79
:101F70004FF28870FFF7A8FA1420FEF713FC8820B0
:101F8000FFF7A2FA1420FEF70DFC4DF68870FFF75C
:101F90009BFA1420FEF706FC4BF67070FFF794FADC
:101FA0001420FEF7FFFB4FF4FE40FFF78DFA2046AA
:101FB000FEF7F8FB4FF47E40FFF786FA1420FEF799
:101FC000F1FB4FF63850FFF77FFA1420FEF7EAFBDB
:101FD0004FF64430FFF778FA1420FEF7E3FB4FF298
:101FE0004470FFF771FA1420FEF7DCFB4EF64470E4
:101FF000FFF76AFA1420FEF7D5FB4DF64470FFF7A1
:1020000063FA1420FEF7CEFB4BF63870FFF75CFA4C
:102010001420FEF7C7FB4FF4FE40FFF755FA2046A9
:10202000FEF7C0FB4FF47E40FFF74EFA1420FEF798
:10203000B9FB4FF61C50FFF747FA1420FEF7B2FB2E
:102040004FF62230FFF740FA1420FEF7ABFB4FF2B9
:102050002270FFF739FA1420FEF7A4FB4EF6227027
:10206000FFF732FA1420FEF79DFB4DF62270FFF7C2
:102070002BFA1420FEF796FB4BF61C70FFF724FAA0
:102080001420FEF78FFB4FF4FE40FFF71DFA2046A9
:10209000FEF788FB4FF47E40FFF716FA4FF47E40C0
:1020A000FFF712FA1420FEF77DFB4FF60E50FFF7F4
:1020B0000BFA1420FEF776FB4FF61130FFF704FA07
:1020C0001420FEF76FFB4FF21170FFF7FDF914209B
:1020D000FEF768FB4EF61170FFF7F6F91420FEF7D5
:1020E00061FB4DF61170FFF7EFF91420FEF75AFB74
:1020F0004BF60E70FFF7E8F91420FEF753FB4FF490
:10210000FE40FFF7E1F92046FEF74CFB4FF6026078
:10211000FFF7DAF91420FEF745FBFE20FFF7D4F9AC
:102120001420FEF73FFB4FF69230FFF7CDF9142055
:10213000FEF738FB4FF29270FFF7C6F91420FEF756
:1021400031FB4EF69270FFF7BFF91420FEF72AFB21
:102150004DF69270FFF7B8F91420FEF723FB4BF60B
:102160009270FFF7B1F91420FEF71CFB4FF4FE400C
:10217000FFF7AAF92046FEF715FB4FF60160FFF7BF
:10218000A3F91420FEF70EFB4FF67F50FFF79CF9E2
:102190001420FEF707FB4FF64930FFF795F914209E
:1021A000FEF700FB4FF24970FFF78EF91420FEF79F
:1021B000F9FA4EF64970FFF787F91420FEF7F2FAA4
:1021C0004DF64970FFF780F91420FEF7EBFA4BF655
:1021D0004970FFF779F91420FEF7E4FA4FF4FE4056
:1021E000FFF772F92046FEF7DDFA4FF68060FFF741
:1021F0006BF91420FEF7D6FA4FF6BF50FFF764F9DB
:102200001420FEF7CFFA4FF6A430FFF75DF9142043
:10221000FEF7C8FA4FF2A470FFF756F91420FEF744
:10222000C1FA4EF6A470FFF74FF91420FEF7BAFA80
:102230004DF6A470FFF748F91420FEF7B3FA4BF6F9
:10224000A470FFF741F91420FEF7ACFA4FF4FE40FA
:10225000FFF73AF92046FEF7A5FA4FF62060FFF7A0
:1022600033F91420FEF79EFA4FF6DF50FFF72CF9F2
:102270001420FEF797FA4FF65230FFF725F9142095
:10228000FEF790FA4FF25270FFF71EF91420FEF796
:1022900089FA4EF65270FFF717F91420FEF782FA0A
:1022A0004DF65270FFF710F91420FEF77BFA4BF64B
:1022B0005270FFF709F91420FEF774FA4FF4FE404C
:1022C000FFF702F92046FEF76DFA4FF62060FFF7A0
:1022D000FBF81420FEF766FA4FF6EF50FFF7F4F81C
:1022E0001420FEF75FFA4FF62930FFF7EDF81420BF
:1022F000FEF758FA4FF22970FFF7E6F81420FEF7C0
:1023000051FA4EF62970FFF7DFF81420FEF74AFA6B
:102310004DF62970FFF7D8F81420FEF743FA4BF674
:102320002970FFF7D1F81420FEF73CFA4FF4FE4075
:10233000FFF7CAF82046FEF735FA4FF61060FFF7B0
:10234000C3F81420FEF72EFA4FF6F750FFF7BCF84B
:102350001420FEF727FA4FF69430FFF7B5F8142053
:10236000FEF720FA4FF29470FFF7AEF81420FEF754
:1023700019FA4EF69470FFF7A7F81420FEF712FA38
:102380004DF69470FFF7A0F81420FEF70BFA4BF609
:102390009470FFF799F81420FEF704FA4FF4FE400A
:1023A000FFF792F82046FEF7FDF94FF60860FFF7B9
:1023B0008BF81420FEF7F6F94FF6FB50FFF784F880
:1023C0001420FEF7EFF94FF64A30FFF77DF814209E
:1023D000FEF7E8F94FF24A70FFF776F81420FEF79F
:1023E000E1F94EF64A70FFF76FF81420FEF7DAF9BC
:1023F0004DF64A70FFF768F81420FEF7D3F94BF654
:102400004A70FFF761F81420FEF7CCF94FF4FE4054
:10241000FFF75AF82046FEF7C5F94FF60460FFF7BC
:1024200053F81420FEF7BEF94FF6FD50FFF74CF8B5
:102430001420FEF7B7F94FF62530FFF745F81420C2
:10244000FEF7B0F94FF22570FFF73EF81420FEF7C3
:10245000A9F94EF62570FFF737F81420FEF7A2F918
:102460004DF62570FFF730F81420FEF79BF94BF678
:102470002570FFF729F81420FEF794F94FF4FE4079
:10248000FFF722F82046FEF78DF94FF60260FFF7BE
:102490001BF81420FEF786F94FF6FE50FFF714F8EC
:1024A0001420FEF77FF94FF69230FFF70DF8142055
:1024B000FEF778F94FF29270FFF706F81420FEF756
:1024C00071F94EF69270FEF7FFFF1420FEF76AF9DD
:1024D0004DF69270FEF7F8FF1420FEF763F94BF605
:1024E0009270FEF7F1FF1420FEF75CF94FF4FE4006
:1024F000FEF7EAFF2046FEF755F910BD10B54FF67E
:102500007E60FEF7E1FF1420FEF74CF94FF64050D5
:10251000FEF7DAFF1420FEF745F94FF67830FEF7A4
:10252000D3FF1420FEF73EF94FF24070FEF7CCFFC8
:102530001420FEF737F94EF67E70FEF7C5FF142023
:10254000FEF730F94FF45F40FEF7BEFF1420FEF7B0
:1025500029F94BF67C70FEF7B7FF1420FEF722F93D
:1025600047F61270FEF7B0FFFD4C2046FEF71AF951
:102570004FF64060FEF7A8FF1420FEF713F94FF660
:102580007850FEF7A1FF1420FEF70CF94FF640300B
:10259000FEF79AFF1420FEF705F94FF27E70FEF762
:1025A00093FF1420FEF7FEF84FF46F40FEF78CFF08
:1025B0001420FEF7F7F84DF67C70FEF785FF142027
:1025C000FEF7F0F84BF61270FEF77EFF1420FEF7D0
:1025D000E9F847F61270FEF777FF2046FEF7E2F8BB
:1025E0004FF67860FEF770FF1420FEF7DBF84FF629
:1025F0004050FEF769FF1420FEF7D4F84FF67E3006
:10260000FEF762FF1420FEF7CDF84FF47740FEF797
:102610005BFF1420FEF7C6F84EF67C70FEF754FF01
:102620001420FEF7BFF84DF61270FEF74DFF142090
:10263000FEF7B8F84BF61270FEF746FF1420FEF7CF
:10264000B1F847F67C70FEF73FFF2046FEF7AAF888
:102650004FF64060FEF738FF1420FEF7A3F84FF660
:102660007E50FEF731FF1420FEF79CF84FF47B40BC
:10267000FEF72AFF1420FEF795F84FF27C70FEF764
:1026800023FF1420FEF78EF84EF61270FEF71CFFA3
:102690001420FEF787F84DF61270FEF715FF142090
:1026A000FEF780F84BF67C70FEF70EFF1420FEF765
:1026B00079F84FF4FE40FEF707FF2046FEF772F868
:1026C0004FF67E60FEF700FF1420FEF76BF84FF424
:1026D0007D40FEF7F9FE1420FEF764F84FF67C30DB
:1026E000FEF7F2FE1420FEF75DF84FF21270FEF7CF
:1026F000EBFE1420FEF756F84EF61270FEF7E4FEDD
:102700001420FEF74FF84DF67C70FEF7DDFE142026
:10271000FEF748F84FF43F40FEF7D6FE1420FEF7D0
:1027200041F847F67C70FEF7CFFE2046FEF73AF8F8
:102730004FF47E40FEF7C8FE1420FEF733F84FF644
:102740007C50FEF7C1FE1420FEF72CF84FF6123035
:10275000FEF7BAFE1420FEF725F84FF21270FEF7CE
:10276000B3FE1420FEF71EF84EF67C70FEF7ACFEAA
:102770001420FEF717F84FF45F40FEF7A5FE142073
:10278000FEF710F84BF67C70FEF79EFE1420FEF765
:1027900009F847F61070FEF797FE2046FEF702F89C
:1027A0004FF67C60FEF790FE1420FDF7FBFF4FF61E
:1027B0001250FEF789FE1420FDF7F4FF4FF6123099
:1027C000FEF782FE1420FDF7EDFF4FF27C70FEF75E
:1027D0007BFE1420FDF7E6FF4FF46F40FEF774FE1A
:1027E0001420FDF7DFFF4DF67C70FEF76DFE142020
:1027F000FDF7D8FF4BF61070FEF766FE1420FDF7CC
:10280000D1FF47F60870FEF75FFE2046FDF7CAFFCE
:102810004FF61260FEF758FE1420FDF7C3FF4FF687
:102820001250FEF751FE1420FDF7BCFF4FF67C302E
:10283000FEF74AFE1420FDF7B5FF4FF47740FEF790
:1028400043FE1420FDF7AEFF4EF67C70FEF73CFE13
:102850001420FDF7A7FF4DF61070FEF735FE14208B
:10286000FDF7A0FF4BF60870FEF72EFE1420FDF7D3
:1028700099FF47F60470FEF727FE2046FDF792FF0A
:102880004FF61260FEF720FE1420FDF78BFF4FF687
:102890007C50FEF719FE1420FDF784FF4FF47B40B7
:1028A000FEF712FE1420FDF77DFF4FF27C70FEF75D
:1028B0000BFE1420FDF776FF4EF61070FEF704FEB7
:1028C0001420FDF76FFF4DF60870FEF7FDFD142094
:1028D000FDF768FF4BF60470FEF7F6FD1420FDF7D8
:1028E00061FF4FF4FE40FEF7EFFD2046FDF75AFF73
:1028F0004FF67C60FEF7E8FD1420FDF753FF4FF420
:102900007D40FEF7E1FD1420FDF74CFF4FF67C30D3
:10291000FEF7DAFD1420FDF745FF4FF21070FEF7C9
:10292000D3FD1420FDF73EFF4EF60870FEF7CCFDF8
:102930001420FDF737FF4DF60470FEF7C5FD142097
:10294000FDF730FF4FF43F40FEF7BEFD1420FDF7CA
:1029500029FF47F67C70FEF7B7FD204602E000BF76
:10296000F0490200FDF71EFF4FF47E40FEF7ACFD7C
:102970001420FDF717FF4FF67C50FEF7A5FD14203D
:10298000FDF710FF4FF61030FEF79EFD1420FDF707
:1029900009FF4FF20870FEF797FD1420FDF702FFC4
:1029A0004EF60470FEF790FD1420FDF7FBFE4FF489
:1029B0005F40FEF789FD1420FDF7F4FE4BF67C70B6
:1029C000FEF782FD1420FDF7EDFE47F60870FEF7D6
:1029D0007BFD2046FDF7E6FE4FF67C60FEF774FDBA
:1029E0001420FDF7DFFE4FF61050FEF76DFD1420AA
:1029F000FDF7D8FE4FF60830FEF766FD1420FDF710
:102A0000D1FE4FF20470FEF75FFD1420FDF7CAFE01
:102A10004FF46F40FEF758FD1420FDF7C3FE4DF64E
:102A20007C70FEF751FD1420FDF7BCFE4BF60870DC
:102A3000FEF74AFD1420FDF7B5FE47F60870FEF7D5
:102A400043FD2046FDF7AEFE4FF61060FEF73CFD5D
:102A50001420FDF7A7FE4FF60850FEF735FD1420B1
:102A6000FDF7A0FE4FF60430FEF72EFD1420FDF713
:102A700099FE4FF47740FEF727FD1420FDF792FEF4
:102A80004EF67C70FEF720FD1420FDF78BFE4DF610
:102A90000870FEF719FD1420FDF784FE4BF6087050
:102AA000FEF712FD1420FDF77DFE47F67870FEF765
:102AB0000BFD2046FDF776FE4FF60860FEF704FD9D
:102AC0001420FDF76FFE4FF60450FEF7FDFC1420B6
:102AD000FDF768FE4FF47B40FEF7F6FC1420FDF78F
:102AE00061FE4FF27C70FEF7EFFC1420FDF75AFEFA
:102AF0004EF60870FEF7E8FC1420FDF753FE4DF685
:102B00000870FEF7E1FC1420FDF74CFE4BF67870E0
:102B1000FEF7DAFC1420FDF745FE4FF4FE40FEF709
:102B2000D3FC2046FDF73EFE4FF60460FEF7CCFCDA
:102B30001420FDF737FE4FF47D40FEF7C5FC14204E
:102B4000FDF730FE4FF67C30FEF7BEFC1420FDF79B
:102B500029FE4FF20870FEF7B7FC1420FDF722FEA5
:102B60004EF60870FEF7B0FC1420FDF71BFE4DF684
:102B70007870FEF7A9FC1420FDF714FE4FF43F40D7
:102B8000FEF7A2FC1420FDF70DFE47F67A70FEF763
:102B90009BFC2046FDF706FE4FF47E40FEF794FCBA
:102BA0001420FDF7FFFD4FF67C50FEF78DFC14203E
:102BB000FDF7F8FD4FF60830FEF786FC1420FDF710
:102BC000F1FD4FF20870FEF77FFC1420FDF7EAFDDF
:102BD0004EF67870FEF778FC1420FDF7E3FD4FF415
:102BE0005F40FEF771FC1420FDF7DCFD4BF67A70B8
:102BF000FEF76AFC1420FDF7D5FD4FF4FE40FEF70A
:102C000063FC2046FDF7CEFD4FF67C60FEF75CFCD2
:102C10001420FDF7C7FD4FF60850FEF755FC1420B1
:102C2000FDF7C0FD4FF60830FEF74EFC1420FDF70F
:102C3000B9FD4FF27870FEF747FC1420FDF7B2FDA6
:102C40004FF46F40FEF740FC1420FDF7ABFD4DF64E
:102C50007A70FEF739FC1420FDF7A4FD4FF43F40D5
:102C6000FEF732FC1420FDF79DFD47F67C70FEF761
:102C70002BFC2046FDF796FD4FF60860FEF724FC7E
:102C80001420FDF78FFD4FF60850FEF71DFC1420B1
:102C9000FDF788FD4FF67830FEF716FC1420FDF79F
:102CA00081FD4FF47740FEF70FFC1420FDF77AFD0D
:102CB0004EF67A70FEF708FC1420FDF773FD4FF412
:102CC0005F40FEF701FC1420FDF76CFD4BF67C70B5
:102CD000FEF7FAFB1420FDF765FD47F60870FEF7D6
:102CE000F3FB2046FDF75EFD4FF60860FEF7ECFBB8
:102CF0001420FDF757FD4FF67850FEF7E5FB142042
:102D0000FDF750FD4FF47B40FEF7DEFB1420FDF78E
:102D100049FD4FF27A70FEF7D7FB1420FDF742FD14
:102D20004FF46F40FEF7D0FB1420FDF73BFD4DF64E
:102D30007C70FEF7C9FB1420FDF734FD4BF60870DC
:102D4000FEF7C2FB1420FDF72DFD47F60870FEF7D5
:102D5000BBFB2046FDF726FD4FF67860FEF7B4FB7F
:102D60001420FDF71FFD4FF47D40FEF7ADFB14204E
:102D7000FDF718FD4FF67A30FEF7A6FB1420FDF79D
:102D800011FD4FF47740FEF79FFB1420FDF70AFD7D
:102D90004EF67C70FEF798FB1420FDF703FD4DF610
:102DA0000870FEF791FB1420FDF7FCFC4BF6087051
:102DB000FEF78AFB1420FDF7F5FC47F67870FEF766
:102DC00083FB2046FDF7EEFC4FF47E40FEF77CFBD4
:102DD0001420FDF7E7FC4FF67A50FEF775FB142040
:102DE000FDF7E0FC4FF47B40FEF76EFB1420FDF78F
:102DF000D9FC4FF27C70FEF767FB1420FDF7D2FC84
:102E00004EF60870FEF760FB1420FDF7CBFC4DF684
:102E10000870FEF759FB1420FDF7C4FC4BF67870E0
:102E2000FEF752FB1420FDF7BDFC4FF4FE40FEF709
:102E30004BFB2046FDF7B6FC4FF67A60FEF744FBED
:102E40001420FDF7AFFC4FF47D40FEF73DFB14204E
:102E5000FDF7A8FC4FF67C30FEF736FB1420FDF79B
:102E6000A1FC4FF20870FEF72FFB1420FDF79AFC2F
:102E70004EF60870FEF728FB1420FDF793FC4DF684
:102E80007870FEF721FB1420FDF78CFC4FF43F40D7
:102E9000FEF71AFB1420FDF785FC47F60E70FEF7CF
:102EA00013FB2046FDF77EFC4FF47E40FEF70CFB43
:102EB0001420FDF777FC4FF67C50FEF705FB14203D
:102EC000FDF770FC4FF60830FEF7FEFA1420FDF710
:102ED00069FC4FF20870FEF7F7FA1420FDF762FC68
:102EE0004EF67870FEF7F0FA1420FDF75BFC4FF415
:102EF0005F40FEF7E9FA1420FDF754FC4BF60E7024
:102F0000FEF7E2FA1420FDF74DFC47F60A70FEF7D3
:102F1000DBFA2046FDF746FC4FF67C60FEF7D4FA5C
:102F20001420FDF73FFC4FF60850FEF7CDFA1420B1
:102F3000FDF738FC4FF60830FEF7C6FA1420FDF70F
:102F400031FC4FF27870FEF7BFFA1420FDF72AFC2F
:102F50004FF46F40FEF7B8FA1420FDF723FC4DF64E
:102F60006E70FEF7B1FA1420FDF71CFC4BF60A70E8
:102F7000FEF7AAFA1420FDF715FC47F67E70FEF75F
:102F8000A3FA2046FDF70EFC4FF60860FEF79CFA08
:102F90001420FDF707FC4FF60850FEF795FA1420B1
:102FA000FDF700FC4FF67830FEF78EFA1420FDF79F
:102FB000F9FB4FF47740FEF787FA1420FDF7F2FB98
:102FC0004EF66E70FEF780FA1420FDF7EBFB4DF61F
:102FD0004A70FEF779FA1420FDF7E4FB4BF67E7099
:102FE000FEF772FA1420FDF7DDFB4FF4FE40FEF70A
:102FF0006BFA2046FDF7D6FB4FF60860FEF764FA41
:103000001420FDF7CFFB4FF67850FEF75DFA142041
:10301000FDF7C8FB4FF47B40FEF756FA1420FDF78E
:10302000C1FB4FF26E70FEF74FFA1420FDF7BAFBAA
:103030004EF64A70FEF748FA1420FDF7B3FB4DF642
:103040007E70FEF741FA1420FDF7ACFB4FF43F40D1
:10305000FEF73AFA1420FDF7A5FB47F67E70FEF75F
:1030600033FA2046FDF79EFB4FF67860FEF72CFA08
:103070001420FDF797FB4FF47D40FEF725FA14204E
:10308000FDF790FB4FF66E30FEF71EFA1420FDF7A9
:1030900089FB4FF24A70FEF717FA1420FDF782FB06
:1030A0004EF67E70FEF710FA1420FDF77BFB4FF40E
:1030B0005F40FEF709FA1420FDF774FB4BF67E70B3
:1030C000FEF702FA1420FDF76DFB47F64070FEF79D
:1030D000FBF92046FDF766FB4FF47E40FEF7F4F95E
:1030E0001420FDF75FFB4FF66E50FEF7EDF914204C
:1030F000FDF758FB4FF64A30FEF7E6F91420FDF7CE
:1031000051FB4FF27E70FEF7DFF91420FDF74AFB0A
:103110004FF46F40FEF7D8F91420FDF743FB4DF64E
:103120007E70FEF7D1F91420FDF73CFB4BF64070A2
:10313000FEF7CAF91420FDF735FB47F67870FEF765
:10314000C3F92046FDF72EFB4FF66E60FEF7BCF983
:103150001420FDF727FB4FF64A50FEF7B5F914206F
:10316000FDF720FB4FF67E30FEF7AEF91420FDF799
:1031700019FB4FF47740FEF7A7F91420FDF712FB77
:103180004EF67E70FEF7A0F91420FDF70BFB4DF60E
:103190004070FEF799F91420FDF704FB4BF67870A8
:1031A000FEF792F91420FDF7FDFA47F64070FEF79E
:1031B0008BF92046FDF7F6FA4FF64A60FEF784F9E0
:1031C0001420FDF7EFFA4FF67E50FEF77DF914203C
:1031D000FDF7E8FA4FF47B40FEF776F91420FDF78F
:1031E000E1FA4FF27E70FEF76FF91420FDF7DAFA7C
:1031F0004EF64070FEF768F91420FDF7D3FA4DF64D
:103200007870FEF761F91420FDF7CCFA4BF64070A8
:10321000FEF75AF91420FDF7C5FA47F67E70FEF75F
:1032200053F92046FDF7BEFA4FF67E60FEF74CF9E3
:103230001420FDF7B7FA4FF47D40FEF745F914204E
:10324000FDF7B0FA4FF67E30FEF73EF91420FDF799
:10325000A9FA4FF24070FEF737F91420FDF7A2FAF1
:103260004EF67870FEF730F91420FDF79BFA4DF614
:103270004070FEF729F91420FDF794FA4BF67E70A2
:10328000FEF722F91420FDF78DFA4FF4FE40FEF709
:103290001BF92046FDF786FA4FF47E40FEF714F93D
:1032A0001420FDF77FFA4FF67E50FEF70DF914203B
:1032B000FDF778FA4FF64030FEF706F91420FDF7D7
:1032C00071FA4FF27870FEF7FFF81420FDF76AFAF2
:1032D0004EF64070FEF7F8F81420FDF763FA4DF64D
:1032E0007E70FEF7F1F81420FDF75CFA4FF43F40D2
:1032F000FEF7EAF81420FDF755FA47F67E70FEF760
:10330000E3F82046FDF74EFA10BD00BF0A4A1388C5
:103310009BB20A49C95C0A4B1960138801339BB2FE
:10332000138013889BB244F27862934200D07047B6
:10333000014B00221A80FAE71A020020F07F0108F0
:10334000140402400A4A13889BB20A49C95C0A4B1A
:103350001960138801339BB2138013889BB241F626
:103360005832934200D07047014B00221A80FAE78E
:103370001A020020686602081404024038B5FDF7FE
:1033800093FF01210020FDF761FF00210846FDF7B2
:103390005DFF0E210320FDF759FF00210220FDF7FC
:1033A00055FF0C210320FDF751FF04210320FDF7F9
:1033B0004DFF022205210020FDF710FD022207210A
:1033C0000020FDF70BFD052211460020FDF77CFED5
:1033D000052207210020FDF777FE022209210020A7
:1033E000FDF7FCFC02220A210020FDF7F7FC072272
:1033F00009210020FDF768FE07220A210020FDF7C1
:1034000063FE012410E0E5B2012229460020FDF709
:10341000E5FC002229461046FDF71EFD002221464C
:103420001046FDF751FD0134032CECDD002211465E
:103430001046FDF7D3FC002211461046FDF782FD31
:10344000FDF742FFFDF752FB012208211046FDF770
:10345000C5FC012209211046FDF7C0FC01220A210A
:103460001046FDF7BBFC002410E001222146104667
:10347000FDF7B4FC002221460120FDF7EDFC0022FF
:1034800021460120FDF720FD0134E4B2072CECD9E0
:103490003848FDF751FC00210846FDF753FC012197
:1034A0000020FDF723FC0320FDF7A6FE00230122E8
:1034B00003212520FDF7AAFE00231A46032106203A
:1034C000FDF7A4FE0620FDF78BFE2520FDF788FE04
:1034D000FDF7A4FF0120FDF7D1FFFDF746F9FDF749
:1034E0002FFF254B1B78002BFBD0FDF729FF012078
:1034F000FDF738FFFA20FDF729FF2048FDF746FFCA
:103500001F48FDF731FBFEF711F840F2DC50FDF7E4
:1035100009F90020FDF726FFFDF712FF06E0194824
:10352000FDF722FB144B1B78012B03D0164B1B78A5
:10353000012BF4D1154B1B78472BF7D10E4B1B7881
:10354000022BF3D00120FDF70DFFFA20FDF7FEFE60
:103550000F48FDF71BFF0F48FDF706FBFEF7CEFFF8
:10356000054B1B78022BE9D10023074A1370074A49
:103570001370DBE79D0C00080F02002045330008A4
:1035800068C60108F03F0008180200201902002058
:103590000D330008F0DF000808B50120FDF78EFFAD
:1035A000014B187008BD00BF19020020014B1868BC
:1035B000704700BF1400002030B5141E05469BB0B4
:1035C000184605DA8B232B604FF0FF301BB030BD5F
:1035D0004FF40273ADF80C3014BF04F1FF332346EF
:1035E000029305934FF6FF7300910491ADF80E30EE
:1035F00002461E9B6946284600F072F8431CBCBF79
:103600008B232B60002CE1D0009B00221A70DDE799
:1036100007B5009313460A46014603480068FFF7C2
:10362000CBFF03B05DF804FB140000202DE9F04748
:103630008E689E4282460C469046994637D88A89C3
:1036400012F4906F31D0256809696F1A65690223F9
:1036500005EB450595FBF3F509F101033B449D425C
:1036600038BF1D46530530D5294600F07BFB064682
:1036700050B90C23CAF80030A38943F04003A3815A
:103680004FF0FF30BDE8F0873A46216900F0F8FAC4
:10369000A38923F4906343F08003A38126616561CD
:1036A0003E44ED1B2660A5604E464E4500D94E4671
:1036B00032464146206800F0EEFAA3689B1BA360E7
:1036C00023681E4426600020DCE72A4600F0A4FBA5
:1036D00006460028E2D12169504600F0F5FAC8E715
:1036E0002DE9F04F9DB0804603938B891D060C4653
:1036F00016460FD50B696BB9402100F033FB2060F3
:10370000206128B90C23C8F800304FF0FF30C7E023
:10371000402363610023099320238DF8293030234F
:103720008DF82A304FF0010B37463D4615F8013B26
:103730000BB1252B3ED1B7EB060A0BD053463246D0
:1037400021464046FFF772FF013000F0A480099B3C
:10375000534409933B78002B00F09D8000234FF0E9
:10376000FF32CDE90523049307938DF853301A9364
:103770002F46052217F8011B4F4800F031FA049B31
:10378000D0B9D90644BF20228DF853201A0744BF70
:103790002B228DF853202A782A2A15D0079A2F46F3
:1037A00000200A25394611F8013B303B092B4DD941
:1037B000B8B10FE02F46B8E73F4A801A0BFA00F085
:1037C000184304903D46D3E7039A111D12680391F4
:1037D000002A01DB079204E0524243F00203079201
:1037E00004933B782E2B0CD17B782A2B33D1039B6F
:1037F0001A1D1B680392002BB8BF4FF0FF3302372E
:1038000005932E4D39780322284600F0E9F938B1A6
:103810004023401B03FA00F0049B03430137049349
:10382000397827488DF8281006227E1C00F0D8F938
:10383000002838D0234B13BB039B073323F0070327
:1038400008330393099B4B4409936DE705FB023250
:1038500001200F46A6E700230137059319460A25E4
:10386000384610F8012B303A092A03D9002BC8D06A
:103870000591C6E705FB012101230746F0E703ABED
:1038800000932246104B04A94046AFF30080B0F1EC
:10389000FF3F8146D6D1A3895B063FF536AF099835
:1038A0001DB0BDE8F08F03AB00932246064B04A980
:1038B000404600F081F8EAE7E8A40208EEA4020816
:1038C000F2A40208000000002D3600082DE9F047A0
:1038D00091461F468A680B69DDF820809342B8BF85
:1038E0001346C9F8003091F8432006460C4612B141
:1038F0000133C9F800302368990642BFD9F8003077
:103900000233C9F80030256815F0060507D104F127
:10391000190AE368D9F800209B1AAB4228DC94F816
:1039200043302268003318BF012392062DD404F1DE
:10393000430239463046C047013020D02368E5684D
:10394000D9F8002003F00603042B08BFAD1AA368C2
:1039500022690CBF25EAE57500259342C4BF9B1A76
:10396000ED184FF000091A344D451AD1002008E037
:103970000123524639463046C047013003D14FF04B
:10398000FF30BDE8F0870135C3E7E1185A1C30204D
:1039900081F84300224494F8451082F84310023322
:1039A000C5E70123224639463046C0470130E6D0FC
:1039B00009F10109D8E700002DE9F04301F1430CBA
:1039C0000C46097E85B06E291746064698460C9A25
:1039D00000F0B38022D8632936D00AD8002900F03D
:1039E000B980582900F0838004F1420584F8421020
:1039F00032E0642901D06929F6D1206813680506F0
:103A000003F104012AD51B681160002B03DA2D2273
:103A10005B4284F843206F480A2239E0732900F0A2
:103A20009D8008D86F2920D07029DDD1236843F00C
:103A30002003236003E0752917D07829D4D1782397
:103A400084F84530644855E01368191D1B681160FF
:103A500004F1420584F8423001238CE01B681160B8
:103A600010F0400F18BF1BB2CFE713682568181D70
:103A70001060280601D51B6802E06806FBD51B888C
:103A800054486F2914BF0A220822002184F84310E9
:103A90006568A560002DC0F29580216821F00401C1
:103AA0002160002B3DD1002D40F08E806546082A14
:103AB0000BD12368DB0708D5236962689A42DEBF11
:103AC000302305F8013C05F1FF35ACEB050323611C
:103AD000CDF800803B4603AA21463046FFF7F6FEAC
:103AE00001304DD14FF0FF3005B0BDE8F0833948CB
:103AF00084F84510136821681D1D1B6815600A06AF
:103B00000BD5CA0744BF41F0200121601BB92268D0
:103B100022F0200222601022B7E74D0648BF9BB278
:103B2000EFE76546B3FBF2F102FB1133C35C05F826
:103B3000013D0B460029F5D1B9E713682568616995
:103B4000181D106028061B6801D5196002E06A067E
:103B5000FBD51980002323616546B9E71368191D59
:103B600011601D6862680021284600F039F808B12C
:103B7000401B606063682361002384F84330A7E73B
:103B800023692A4639463046C0470130AAD0236807
:103B90009B0713D4E068039B9842B8BF1846A3E77D
:103BA00001234A4639463046C04701309AD0013594
:103BB000E368039A9B1AAB42F2DCEBE7002504F1C1
:103BC0001909F5E7002BACD1037884F8423004F1F1
:103BD00042056CE7F9A402080AA5020800000000EB
:103BE00001F0FF01102A2BDB10F0070F08D010F8AE
:103BF000013B013A8B422DD010F0070F42B3F6D1B2
:103C0000F0B441EA012141EA014122F007047FF0CA
:103C100000070023F0E80256083C85EA010586EA21
:103C2000010685FA47F5A3FA87F586FA47F6A5FA5D
:103C300087F68EB9EED1F0BC01F0FF0102F0070269
:103C400032B110F8013B013A83EA010313B1F8D114
:103C50000020704701387047002D06BF35460338F5
:103C6000073815F0010F07D1013015F4807F02BF2E
:103C7000013015F4C03F0130F0BC0138704700BF7F
:103C800010B5431E0A44914200D110BD11F8014BFA
:103C900003F8014FF7E7884210B501EB020307D89C
:103CA000421E99420AD011F8014B02F8014FF8E781
:103CB0008342F5D98118D21AD34200D110BD13F82E
:103CC000014D01F8014DF7E738B50546002945D00B
:103CD00051F8043C0C1F002BB8BFE41800F0D2F8D8
:103CE0001F4A1368104633B9636014602846BDE864
:103CF000384000F0C8B8A3420CD92168621893423A
:103D000004BF1A685B68636004BF521822600460D5
:103D1000ECE713465A680AB1A242FAD91968581852
:103D2000A0420BD120680144581882421960DDD1AD
:103D3000106852685A6001441960D7E702D90C2311
:103D40002B60D3E7206821188A4204BF11685268AB
:103D5000626004BF091821605C60C7E738BD00BF1E
:103D60001C02002070B5CD1C25F0030508350C2D74
:103D700038BF0C25002D064601DBA94203D90C23D0
:103D80003360002070BD00F07DF8214A14682146A0
:103D900091B9204C23681BB9304600F063F82060CD
:103DA0002946304600F05EF8431C24D10C233360D2
:103DB000304600F068F8E4E70B685B1B18D40B2B67
:103DC0000FD90B60CD50CC18304600F05CF804F1F0
:103DD0000B00231D20F00700C31AD3D05A42E25033
:103DE000D0E78C424B6816BF636013600C46EBE76C
:103DF0000C464968CCE7C41C24F00304A04205D05B
:103E0000211A304600F02EF80130CFD02560DBE7D4
:103E10001C02002020020020F8B5074614460E467A
:103E200021B91146BDE8F840FFF79CBF22B9FFF762
:103E30004BFF25462846F8BD00F026F8A0420FD2D9
:103E400021463846FFF78EFF05460028F2D031465E
:103E50002246FFF715FF31463846FFF735FFE9E701
:103E60003546E7E738B5064C00230546084623608B
:103E7000FCF7D8FA431C02D1236803B12B6038BD8C
:103E8000240200207047704751F8043C181F002B93
:103E9000BCBF0B58C0187047537461636B206672C7
:103EA000616D653A0A000000205230203D20202537
:103EB0003038580A00000000205231203D202025D3
:103EC0003038580A00000000205232203D202025C2
:103ED0003038580A00000000205233203D202025B1
:103EE0003038580A0000000020523132203D202591
:103EF0003038580A00000000204C52203D20202578
:103F00003038580A00000000205043203D20202572
:103F10003038580A0000000020505352203D202520
:103F20003038580A000000004653522F4641523A9A
:103F30000A0000002043465352203D2020253038FF
:103F4000580A00002048465352203D202025303892
:103F5000580A00002044465352203D202025303886
:103F6000580A00002041465352203D202025303879
:103F7000580A0000204D4D464152203D2025303842
:103F8000580A00002042464152203D20202530386A
:103F9000580A00004D6973630A000000204C522F3C
:103FA0004558435F52455455524E3D2025303858B0
:103FB0000A0000005B486172644661756C745D0ABA
:103FC000000000005B4275734661756C745D0A0009
:103FD0005B55736167654661756C745D0A0000002E
:103FE00000000000000000000102030406070809A9
:103FF000FFFFFFFFFFFFFFFFFFFFFFFFFFFFFFFFD1
:10400000FFFFFFFFFFFFFFFFFFFFFFFFFFFFFFFFC0
:10401000FFFFFFFFFFFFFFFFFFFFFFFFFFFFFFFFB0
:10402000FFFFFFFFFFFFFFFFFFFFFFFFFFFFFFFFA0
:1059E000FFFFFFFFFFFFFFFFDFFFFFFFFFFFFFFFE7
:1059F000FFFFFFFFFFFFFFFFFFFFFFFFFFFFDFFFD7
:105A0000FFFFFFFFFFFFFFFFFFFFFFFFFFFFFFFFA6
:105A1000FFFFFFFFFFFFFFFFFFFFFFFFFFFFFFFF96
:105A2000FFFFFFFFFFFFFFFFFFFFFFFFFFFFFFFF86
:105A3000FFFFFFFFFFFFFFFFFFFFFFFFFFFFFFFF76
:105A4000FFFFFFFFFFFFFFFFFFFFFFFFFFFFFFFF66
:105A5000FFFFFFFFFFFFFFFFFFFFFFFFFFFFFFFF56
:105A6000FFFFFFFFFFFFFFFFFFFFFFFFFFFFFFFF46
:105A7000FFFFFFFFFFFFFFFFFFFFFFFFFFFFFFFF36
:105A8000FFFFFFFFFFFFFFFFFFFFFFFFFFFFFFFF26
:105A9000FFFFFFFFFFFFFFFFFFFFFFFFFFFFFFFF16
:105AA000FFFFFFFFFFFFFFFFFFFFFFFFFFFFFFFF06
:105AB000FFFFFFFFFFFFFFFFFFFFFFFFFFFFFFFFF6
:105AC000FFFFFFFFFFFFFFFFFFFFFFFFFFFFFFFFE6
:105AD000FFFFFFFFFFFFFFFFFFFFFFFFFFFFFFFFD6
:105AE000FFFFFFFFFFFFFFFFFFFFFFFFFFFFFFFFC6
:105AF000FFFFFFFFFFFFFFFFFFFFFFFFFFFFFFFFB6
:105B0000FFFFFFFFFFFFFFFFFFFFFFFFFFFFFFFFA5
:105B1000FFFFFFFFFFFFFFFFFFFFFFFFFFFFFFFF95
:105B2000FFFFFFFFFFFFFFFFFFFFFFFFFFFFFFFF85
:105B3000FFFFFFFFFFFFFFFFFFFFFFFFFFFFFFFF75
:105B4000FFFFFFFFFFFFFFFFFFFFFFFFFFFFFFFF65
:105B5000FFFFFFFFFFFFFFFFFFFFFFFFFFFFFFFF55
:105B6000FFFFFFFFFFFFFFFFFFFFFFFFFFFFFFFF45
:105B7000FFFFFFFFFFFFFFFFFFFFFFFFFFFFFFFF35
:105B8000FFFFFFFFFFFFFFFFFFFFFFFFFFFFFFFF25
:105B9000FFFFFFFFFFFFFFFFFFFFFFFFFFFFFFFF15
:105BA000FFFFFFFFFFFFFFFFFFFFFFFFFFFFFFFF05
:105BB000FFFFFFFFFFFFFFFFFFFFFFFFFFFFFFFFF5
:105BC000FFFFFFFFFFFFFFFFFFFFFFFFFFFFFFFFE5
:105BD000FFFFFFFFFFFFFFFFFFFFFFFFFFFFFFFFD5
:105BE000FFFFFFFFDFFFFFFFFFFFFFFFFFFFFFFFE5
:105BF000FFFFFFFFFFFFFFFFFFFFFFFFFFFFFFFFB5
:105C0000FFFFFFFFFFFFFFFFFFFFFFFFFFFFFFFFA4
:105C1000FFFFFFFFFFFFFFFFFFFFFFFFFFFFFFFF94
:105C2000FFFFFFFFFFFFFFFFFFFFFFFFFFFFFFFF84
:105C3000FFFFFFFFFFFFFFFFFFFFFFFFFFFFFFFF74
:105C4000FFFFFFFFFFFFFFFFFFFFFFFFFFFFFFFF64
:105C5000FFFFFFFFFFFFFFFFFFFFFFFFFFFFFFFF54
:105C6000FFFFFFFFFFFFFFFFFFFFFFFFFFFFFFFF44
:105C7000FFFFFFFFFFFFFFFFFFFFFFFFFFFFFFFF34
:105C8000FFFFFFFFFFFFFFFFFFFFFFFFFFFFFFFF24
:105C9000FFFFFFFFFFFFFFFFFFFFFFFFFFFFFFFF14
:105CA000FFFFFFFFFFFFFFFFFFFFFFFFFFFFFFFF04
:105CB000FFFFFFFFFFFFFFFFFFFFFFFFFFFFFFFFF4
:105CC000FFFFFFFFFFFFFFFFFFFFFFFFFFFFFFFFE4
:105CD000FFFFFFFFFFFFFFFFFFFFFFFFFFFFFFFFD4
:105CE000FFFFFFFFFFFFFFFFFFFFFFFFFFFFFFFFC4
:105CF000FFFFFFFFDFFFDFFFBFFF9FF79EF79EF76E
:105D00009EF79EF79EF79EF79EF79EF79EF79EF7EB
:105D10009EF79EF79EF79EF79EF77EF77EF77EEF43
:105D20009EF79EF79EF79EF79EF79EF79EF79EF7CB
:105D30009EF79EF79EF79EF79EF79EF79EF79EF7BB
:105D40009EF79EF79EF79EF79EF79EF79EF77EF7CB
:105D50007EF77EF77EF77EF77EF77EF77EF77EF79B
:105D60007EF77EF77EF77EF77EF77EF77EF77EF78B
:105D70007EF77EF77EF77EF77EF77EF77EF77EF77B
:105D80007EF77EF77EF77EF77EF77EF77EF77EF76B
:105D90007EF77EF77EF77EF77EF77EF79EF79EF71B
:105DA0009EF79EF79EF79EF79EF79EF79EF79EF74B
:105DB0009EF79EF79EF79EF79EF7BEF7BEF7BEF7DB
:105DC000BEF7BEF7BEF7BEF7BEF7BEF7BEF7BEF72B
:105DD000BEF7BEF7BEF7BEF7BEF7BEF7BEF7BEF71B
:105DE0009EF7BEF7BEF7BEF7DFFFFFFFFFFFFFFF27
:105DF000FFFFDFFF7EEF5DEF5EEF9EF7BFF7BFFFB8
:105E0000BFF7BFF7BFF7BFF7BFF7BFF7BFF7BFF7E2
:105E1000BFF7BFF7BFF79FF79EF79EF79EF79EF776
:105E20007EF77EF77EF77EF77EF77EF77EF77EF7CA
:105E30007EF77EF77EF77EF77EF77EF77EF77EF7BA
:105E40007EF77EF77EF79EF77EF77EF77EEF7EEF9A
:105E50007EF77EF77EF77EF77EF77EF77EF77EF79A
:105E60007EF77EF77EF77EF77EF77EF77EF77EF78A
:105E70007EF77EF77EF77EF77EF77EF77EF77EF77A
:105E80007EF77EF77EF77EF77EF77EF77EF77EF76A
:105E90007EF77EF77EF77EF77EF77EF77EF77EF75A
:105EA0009EF79EF79EF79EF79EF7BEF7BEF7BEF7EA
:105EB0009EF79EF79EF7BEF7BEF7DFFFDFFFFFFFFF
:105EC000FFFFFFFFFFFFFFFFFFFFFFFFFFFFFFFFE2
:105ED000FFFFFFFFFFFFFFFFFFFFFFFFFFFFFFFFD2
:105EE000BEF79EF77DEF3CE73CE75DEFDFFFFFFF8E
:105EF000DFFF9EF77EEFBFF7FFFFFFFFFFFFDFFF34
:105F0000FFFFFFFFFFFFFFFFFFFFFFFFFFFFFFFFA1
:105F1000FFFFFFFFFFFFFFFFFFFFFFFFFFFFFFFF91
:105F2000FFFFFFFFFFFFFFFFFFFFFFFFFFFFFFFF81
:105F3000FFFFFFFFFFFFFFFFFFFFFFFFFFFFFFFF71
:105F4000FFFFFFFFFFFFFFFFFFFFFFFFFFFFFFFF61
:105F5000DFFFDFFFDFFFDFFFDFFFDFFFDFFFDFFF51
:105F6000DFFFDFFFDFFFDFFFDFFFDFFFDFFFDFFF41
:105F7000DFFFDFFFDFFFDFFFDFFFDFFFDFFFDFFF31
:105F8000DFFFDFFFDFFFDFFFDFFFDFFFDFFFDFFF21
:105F9000DFFFDFFFDFFFFFFFFFFFFFFFFFFFFFFF71
:105FA000FFFFFFFFFFFFFFFFFFFFFFFFFFFFFFFF01
:105FB000FFFFFFFFFFFFFFFFFFFFFFFFFFFFFFFFF1
:105FC000FFFFFFFFFFFFFFFFFFFFFFFFFFFFFFFFE1
:105FD000FFFFFFFFFFFFFFFFFFFFFFFFFFFFFFFFD1
:105FE000FFFFFFFFFFFFFFFFBEF77DEF9EF7DFFF25
:105FF000FFFFDCDEFFFFDFF7FFFFFEFFFEFFFFFF1F
:10600000FFFFFFFFFFFFFFFFFFFFFFFFFFFFFFFFA0
:10601000FFFFFFFFFFFFFFFFFFFFFFFFFFFFFFFF90
:10602000FFFFFFFFFFFFFFFFFFFFFFFFFFFFFFFF80
:10603000FFFFFFFFFFFFFFFFFFFFFFFFFFFFFFFF70
:10604000FFFFFFFFFFFFFFFFFFFFFFFFFFFFFFFF60
:10605000FFFFFFFFFFFFFFFFFFFFFFFFFFFFFFFF50
:10606000FFFFFFFFFFFFFFFFFFFFFFF7FFF7FFF758
:10607000FFFFFFFFFFFFFFFFFFFFFFFFFFFFFFFF30
:10608000FFFFFFFFFFFFFFFFFFFFFFFFFFFFFFFF20
:10609000FFF7FFFFFFFFFFFFFFFFFFFFFFFFFFFF18
:1060A000FFFFFFFFFFFFFFFFFFFFFFFFFFFFFFFF00
:1060B000FFFFFFFFFFFFFFFFFFFFFFFFFFFFFFFFF0
:1060C000FFFFFFFFFFFFFFFFFFFFFFFFFFFFFFFFE0
:1060D000FFFFFFFFFFFFFFFFFFFFFFFFFFFFFFFFD0
:1060E000FFFFFFFFFFFFFFFFDFF7FFFF1CDFFFFFEB
:1060F0003EE77FEFFFFFFFFFFFFFFFFFFFFFFFFF19
:10610000FFFFFFFFFFFFFFFFFFFFFFFFFFFFFFFF9F
:10611000FFFFFFFFFFFFFFFFFFFFFFFFFFFFFFFF8F
:10612000FFFFFFFFFFFFFFFFFFFFFFFFFFFFFFFF7F
:10613000FFFFFFFFFFFFFFFFFFFFFFFFFFFFFFFF6F
:10614000FFFFFFFFFFFFFFFFFFFFFFFFFFFFFFFF5F
:10615000FFFFFFFFFFFFFFFFFFFFFFFFFFFFFFFF4F
:10616000FFFFFFFFFFFFFFFFFFFFFFFFFFFFFFFF3F
:10617000FFFFFFFFFFFFFFFFFFFFFFFFFFFFFFFF2F
:10618000FFFFFFFFFFFFFFFFFFFFFFFFFFFFFFFF1F
:10619000FFFFFFFFFFFFFFFFFFFFFFFFFFFFFFFF0F
:1061A000FFFFFFFFFFFFFFFFFFFFFFFFFFFFFFFFFF
:1061B000FFFFFFFFFFFFFFFFFFFFFFFFFFFFFFFFEF
:1061C000FFFFFFFFFFFFFFFFFFFFFFFFFFFFFFFFDF
:1061D000FFFFFFFFFFFFFFFFFFFFFFFFFFFFFFFFCF
:1061E000FFFFFFFFFFFFFFFFFFFFFFFF9FEF3DE709
:1061F000DCD6FFFFFFFFFFFFFFFFFFFFFFFFFFFFFB
:10620000FFFFFFFFFFFFFFFFFFFFFFFFFFFFFFFF9E
:10621000FFFFFFFFFFFFFFFFFFFFFFFFFFFFFFFF8E
:10622000FFFFFFFFFFFFFFFFFFFFFFFFFFFFFFFF7E
:10623000FFFFFFFFFFFFFFFFFFFFFFFFFFFFFFFF6E
:10624000FFFFFFFFFFFFFFFFFFFFFFFFFFFFFFFF5E
:10625000FFFFFFFFFFFFFFFFFFFFFFFFFFFFFFFF4E
:10626000FFFFFFFFFFFFFFFFFFFFFFFFFFFFFFFF3E
:10627000FFFFFFFFFFFFFFFFFFFFFFFFFFFFFFFF2E
:10628000FFFFFFFFFFFFFFFFFFFFFFFFFFFFFFFF1E
:10629000FFFFFFFFFFFFFFFFFFFFFFFFFFFFFFFF0E
:1062A000FFFFFFFFFFFFFFFFFFFFFFFFFFFFFFFFFE
:1062B000FFFFFFFFFFFFFFFFFFFFFFFFFFFFFFFFEE
:1062C000FFFFFFFFFFFFFFFFFFFFFFFFFFFFFFFFDE
:1062D000FFFFFFFFFFFFFFFFFFFFFFFFFFFFFFFFCE
:1062E000FFFFFFFFFFFFFFFFFFFFFFFFFFFFBBD62B
:1062F0003EE7FFFFDFF7FFFFFFFFFFFFFFFFFFFFAF
:10630000FFFFFFFFFFFFFFFFFFFFFFFFFFFFFFFF9D
:10631000FFFFFFFFFFFFFFFFFFFFFFFFFFFFFFFF8D
:10632000FFFFFFFFFFFFFFFFFFFFFFFFFFFFFFFF7D
:10633000FFFFFFFFFFFFFFFFFFFFFFFFFFFFFFFF6D
:10634000FFFFFFFFFFFFFFFFFFFFFFFFFFFFFFFF5D
:10635000FFFFFFFFFFFFFFFFFFFFFFFFFFFFFFFF4D
:10636000FFFFFFFFFFFFFFFFFFFFFFFFFFFFFFFF3D
:10637000FFFFFFFFFFFFFFFFFFFFFFFFFFFFFFFF2D
:10638000FFFFFFFFFFFFFFFFFFFFFFFFFFFFFFFF1D
:10639000FFFFFFFFFFFFFFFFFFFFFFFFFFFFFFFF0D
:1063A000FFFFFFFFFFFFFFFFFFFFFFFFFFFFFFFFFD
:1063B000FFFFFFFFFFFFFFFFFFFFFFFFFFFFFFFFED
:1063C000FFFFFFFFFFFFFFFFFFFFFFFFFFFFFFFFDD
:1063D000FFFFFFFFFFFFFFFFFFFFFFFFFFFFFFFFCD
:1063E000FFFFFFFFFFFFFFFFFFFFBFF7FFFFFDDE28
:1063F0009FEFFFFFDFFFFFFFFFFFFFFFFFFFFFFF3D
:10640000FFFFFFFFFFFFFFFFFFFFFFFFFFFFFFFF9C
:10641000FFFFFFFFFFFFFFFFFFFFFFFFFFFFFFFF8C
:10642000FFFFFFFFFFFFFFFFFFFFFFFFFFFFFFFF7C
:10643000FFFFFFFFFFFFFFFFFFFFFFFFFFFFFFFF6C
:10644000FFFFFFFFFFFFFFFFFFFFFFFFFFFFFFFF5C
:10645000FFFFFFFFFFFFFFFFFFFFFFFFFFFFFFFF4C
:10646000FFFFFFFFFFFFFFFFFFFFFFFFFFFFFFFF3C
:10647000FFFFFFFFFFFFFFFFFFFFFFFFFFFFFFFF2C
:10648000FFFFFFFFFFFFFFFFFFFFFFFFFFFFFFFF1C
:10649000FFFFFFFFFFFFFFFFFFFFFFFFFFFFFFFF0C
:1064A000FFFFFFFFFFFFFFFFFFFFFFFFFFFFFFFFFC
:1064B000FFFFFFFFFFFFFFFFFFFFFFFFFFFFFFFFEC
:1064C000FFFFFFFFFFFFFFFFFFFFFFFFFFFFFFFFDC
:1064D000FFFFFFFFFFFFFFFFFFFFFFFFFFFFFFFFCC
:1064E000FFFFFFFFFFFFFFFFFFFFDFF7FFFF3EE7BD
:1064F0007EEFDFF7FFFFFFFFFFFFFFFFFFFFFFFF65
:10650000FFFFFFFFFFFFFFFFFFFFFFFFFFFFFFFF9B
:10651000FFFFFFFFFFFFFFFFFFFFFFFFFFFFFFFF8B
:10652000FFFFFFFFFFFFFFFFFFFFFFFFFFFFFFFF7B
:10653000FFFFFFFFFFFFFFFFFFFFFFFFFFFFFFFF6B
:10654000FFFFFFFFFFFFFFFFFFFFFFFFFFFFFFFF5B
:10655000FFFFFFFFFFFFFFFFFFFFFFFFFFFFFFFF4B
:10656000FFFFFFFFFFFFFFFFFFFFFFFFFFFFFFFF3B
:10657000FFFFFFFFFFFFFFFFFFFFFFFFFFFFFFFF2B
:10658000FFFFFFFFFFFFFFFFFFFFFFFFFFFFFFFF1B
:10659000FFFFFFFFFFFFFFFFFFFFFFFFFFFFFFFF0B
:1065A000FFFFFFFFFFFFFFFFFFFFFFFFFFFFFFFFFB
:1065B000FFFFFFFFFFFFFFFFFFFFFFFFFFFFFFFFEB
:1065C000FFFFFFFFFFFFFFFFFFFFFFFFFFFFFFFFDB
:1065D000FFFFFFFFFFFFFFFFFFFFFFFFFFFFFFFFCB
:1065E000FFFFFFFFFFFFFFFFFFFFFFFFDFFF1EE7D4
:1065F0007DEFFFFFFFFFFFFFFFFFFFFFFFFFFFFF3D
:10660000FFFFFFFFFFFFFFFFFFFFFFFFFFFFFFFF9A
:10661000FFFFFFFFFFFFFFFFFFFFFFFFFFFFFFFF8A
:10662000FFFFFFFFFFFFFFFFFFFFFFFFFFFFFFFF7A
:10663000FFFFFFFFFFFFFFFFFFFFFFFFFFFFFFFF6A
:10664000FFFFFFFFFFFFFFFFFFFFFFFFFFFFFFFF5A
:10665000FFFFFFFFFFFFFFFFFFFFFFFFFFFFFFFF4A
:10666000FFFFFFFFFFFFFFFFFFFFFFFFFFFFFFFF3A
:10667000FFFFFFFFFFFFFFFFFFFFFFFFFFFFFFFF2A
:10668000FFFFFFFFFFFFFFFFFFFFFFFFFFFFFFFF1A
:10669000FFFFFFFFFFFFFFFFFFFFFFFFFFFFFFFF0A
:1066A000FFFFFFFFFFFFFFFFFFFFFFFFFFFFFFFFFA
:1066B000FFFFFFFFFFFFFFFFFFFFFFFFFFFFFFFFEA
:1066C000FFFFFFFFFFFFFFFFFFFFFFFFFFFFFFFFDA
:1066D000FFFFFFFFFFFFFFFFFFFFFFFFFFFFFFFFCA
:1066E000FFFFFFFFFFFFFFFFFFFFFFFFFFFF1DDFBC
:1066F0007EEFFFFFDFFFFFFFFFFFFFFFDFFFFFFF7B
:10670000FFFFFFFFFFFFFFFFFFFFFFFFFFFFFFFF99
:10671000FFFFFFFFFFFFFFFFFFFFFFFFFFFFFFFF89
:10672000FFFFFFFFFFFFFFFFFFFFFFFFFFFFFFFF79
:10673000FFFFFFFFFFFFFFFFFFFFFFFFFFFFFFFF69
:10674000FFFFFFFFFFFFFFFFFFFFFFFFFFFFFFFF59
:10675000FFFFFFFFFFFFFFFFFFFFFFFFFFFFFFFF49
:10676000FFFFFFFFFFFFFFFFFFFFFFFFFFFFFFFF39
:10677000FFFFFFFFFFFFFFFFFFFFFFFFFFFFFFFF29
:10678000FFFFFFFFFFFFFFFFFFFFFFFFFFFFFFFF19
:10679000FFFFFFFFFFFFFFFFFFFFFFFFFFFFFFFF09
:1067A000FFFFFFFFFFFFFFFFFFFFFFFFFFFFFFFFF9
:1067B000FFFFFFFFFFFFFFFFFFFFFFFFFFFFFFFFE9
:1067C000FFFFFFFFFFFFFFFFFFFFFFFFFFFFFFFFD9
:1067D000FFFFFFFFFFFFFFFFFFFFFFFFFFFFFFFFC9
:1067E000FFFFFFFFFFFFFFFFFFFFDFF7FFFF3EE7BA
:1067F0009DEFFFFFFFFFFFFFFFFFFFFFFFFFFFFF1B
:10680000FFFFFFFFFFFFFFFFFFFFFFFFDEFFFFFFB9
:10681000FFFFFFFFFFFFFFFFFFFFFFFFFFFFFFFF88
:10682000FFFFDEFFFFFFFFFFFFFFFFFFDFFFFFFFB9
:10683000FEFFFFFFFFFFFFFFFFFFFFFFFFFFFFFF69
:10684000FFFFFFFFFFFFFFFFFFFFFFFFFFFFDFFF78
:10685000FFFFFFFFFFFFFFFFFFFFFFFFFFFFFFFF48
:10686000FFFFFFFFFFFFFFFFFFFFFFFFFFFFFFFF38
:10687000FFFFFFF7FFFFFFFFFFFFFFFFFFFFDFFF50
:10688000FFFFFFFFFFFFFFFFFFFFFFFFFFFFFFFF18
:10689000FFFFFFFFFFFFFFFFFFFFFFFFFFFFFFFF08
:1068A000FFFFFFFFFFFFFFFFFFFFFFFFFFFFFFFFF8
:1068B000FFFFFFFFFFFFFFFFFFFFFFFFFFFFFFFFE8
:1068C000FFFFFFFFFFFFFFFFFFFFFFFFFFFFFFFFD8
:1068D000FFFFDEF7FFFFFFFFFFFFFFFFFFFFFFFFF1
:1068E000FFFFFFFFFFFFFFFFFFFFDFFFFFFF1EE7D1
:1068F0009DEFFFFFFFFFFFFFFFFFFFFFFFFFFFFF1A
:10690000FFFFFFFFFFFFFFFFFFFFDFFFFFFFFFFFB7
:10691000FFFFFFFFFFFFFFFFFFFFFFFFFFFFFFFF87
:10692000FFFFFFFFFFFFFFFFFFFFFFFFFFFFFFFF77
:10693000FEFFFFFFFEFFFFFFFFFFFFFFDFFFDFFFA9
:10694000FFFFFFFFFFFFFFFFDFFFFFFFFFFFFFFF77
:10695000FFFFFFFFFFFFFFFFFFFFFFFFFFFFFFFF47
:10696000FFFFFFFFFFFFFFFFFFFFFFFFFFFFFFFF37
:10697000FFFFFFFFDFFFFFFFFFFFFFFFFFFFFFFF47
:10698000FFFFFFFFFFFFFFFFFFFFFFFFFFFFFFFF17
:10699000FFFFFFFFFFFFFFFFFFFFFFFFFFFFFFFF07
:1069A000FFFFFFFFFFFFFFFFFFFFFFFFDFFFFFFF17
:1069B000FFFFFFFFFFFFFFFFFFFFFFFFFFFFFFFFE7
:1069C000FFFFFFFFFFFFFFFFFFFFFFFFFFFFFFFFD7
:1069D000FFFFFFFFFFFFDFFFFFFFFFFFFFFFFFFFE7
:1069E000FFFFFFFFFFFFFFFFFFFFDFFFFFFF1EE7D0
:1069F0009DEFFFFFFFFFFFFFFFFFFFFFFFFFFFFF19
:106A0000FFFFFFFFDEFFFFFFFFFFFFFFFFFFBFF7FF
:106A1000FFFFDFFFDFFFDFFFDFFFDFFFDFFFFFFF46
:106A2000FFFFFFFFDEF7FEFFDEFFFFFFFFFFDFFFE1
:106A3000DEFFFFFFFFFFDFFFFFFF9FF7FFFFFFFF0F
:106A4000FFFFFFFFFFFFFFFFFFFFDFFFDFFFBFF7DE
:106A5000DFFFDFFFDFFFDFFFDFFFDFFFDFFFDEFF47
:106A6000DEFFDEFFFEFFFFFFFFFFFFFFFFFFFFF781
:106A7000BEF7FFFFFFFFFFFFFFFFDFFFDEFFFFFFB0
:106A8000FFFFFFFFFFFFFFFFFFFFFFFFFFFFFFFF16
:106A9000FFFFFFFFFFFFFFFFFFFFDFFFDFFFDFFF66
:106AA000FFFFBEF7FFFFFFFFBFFFDFFFFFFFFFFF9F
:106AB000FEFFFFFFFFFFDFFFDFFFFFFFFFFFDFFF47
:106AC000DFFFDFFFDFFFDFFFDFFFDFFFDFFFDFFFD6
:106AD000DFFFFFFFFFFFFFFFFFFFFFFFFFFFFFFFE6
:106AE000FFFFFFFFFFFFFFFFFFFFDFFFFFFF1EE7CF
:106AF0009DEFFFFFFFFFFFFFFFFFFFFFFFFFFFFF18
:106B0000FFFFFFFFFFFFFFFFDFF7FFFFDFFFFFFFDD
:106B1000FFFFFFFFFFFFFFFFFFFFFFFFFFFFFFFF85
:106B2000FFFFFFFFFFFFFFFFFFFFDFFFFFFFFFFF95
:106B3000FFFFFFFFFFFFFFFFFFFFFFFFFFFFDFFF85
:106B4000FFFFFFFFFFFFFEFFFFFFFFFFFFFFFFFF56
:106B5000FFFFFFFFFFFFFFFFFFFFFFFFFFFFDFFF65
:106B6000DFFFDFFFFFFFFFFFFFFFFFFFFFFFFFFF75
:106B7000DFFFDFFFBFFFFFFFDFFFFFFFDFFFFFFFE5
:106B8000FFFFDFFFFFFFFFFFFFFFFFFFDFFFDFFF75
:106B9000FFFFFFFFFFFFFFFFFFFFFFFFFFFFFFFF05
:106BA000FFFFFFFFFFFFBFFFFFFFFFFFFFFFFFFF35
:106BB000FFFFFFFFFFFFFFFFFFFFFFFFFFFFFFFFE5
:106BC000FFFFFFFFFFFFFFFFFFFFFFFFFFFFFFFFD5
:106BD000FFFFFFFFBFF7FFFFFFFFFFFFFFFFDFFF2D
:106BE000FFFFFFFFFFFFFFFFFFFFDFFFFFFF1EE7CE
:106BF0007EEFFFFFFFFFFFFFFFFFFFFFFFFFFFFF36
:106C0000DEF7FFFFFFFFFFFFDFFFFFFFFFFF7BCE92
:106C1000D9BDD9BDD9BDD9BDD9BDD9BDD9BDD8BDC5
:106C2000DFF7FFFFFFFFFFFFFFFFFFFFBCD6B8B599
:106C3000F9BDB8BDB9BDFABDB9BDFAC5B9BD3EEF24
:106C4000FFFFFFFFFFFFFFFFFFFFFFFFFFFFDCDE98
:106C5000D8B5D8BDD8BDB7BDD8C5D7CDB7CDD7CDA0
:106C6000B7CDB7CDB7CDD7CDD7CDD7CDD7CDD7CD64
:106C7000B7CD96CDB7CDF8D5D7CDB6C5BEFFFFFF02
:106C800058D6B6C5F7CDB6C5D7CDB7CDB7D596CD05
:106C9000D7CDD7CDD7CDD7CDD7CDB7CDB7CDB7CD34
:106CA000D7CDB7C5D7C5D7C5D7C5DFFF9EF7D7BDE9
:106CB000D6BDD7BDD7BDD7BDD7BDF8BDF8BDD8BDF2
:106CC000D8BDD8BDD8BDD8BDD8BDD8B5D8B5D8B534
:106CD000D8BDF9BDD8BD9BD6FFFFDFFFFFFFFFFF8B
:106CE000FFFFFFFFFFFFFFFFFFFFDFFFFFFF1EE7CD
:106CF0007EEFFFFFFFFFFFFFFFFFFFFFFFFFFFFF35
:106D0000FFFFFFFFFFFFFFFFFFFFBFF7DFF70B42B4
:106D1000020003000300030003000300030002005D
:106D20009BD6FFFFBEF7FFFFFFFFDFFFAC52020065
:106D30000200230803000300030003000300B17BEB
:106D4000FFFFBFF7FFFFFFFFDEFFFFFFDFFF728CDC
:106D5000010022000100000001102118001801208C
:106D60000020002000200020002000200018001833
:106D7000002021200020001821182118BAE6BFFFAA
:106D8000243920184118001801200120012000207A
:106D900000180020002000200020002000200020FB
:106DA000011800180110000841107EF71CDF0000D8
:106DB0000000000000000000010022082200020084
:106DC00002000200020002000200020002000200B3
:106DD000020002000100E939DFFFFFFFFFFFFFFFB4
:106DE000FFFFFFFFFFFFFFFFFFFFFFFFFFFF1DE7AD
:106DF0007EEFFFFFFFFFFFFFFFFFFFFFFFFFFFFF34
:106E0000FEFFFFFFFFFFFFFFDFFFDFFF7FEF072139
:106E10002400240824080500050024082408230071
:106E200015A5FFFFDFFFFFFFDFFFDFFF8831020057
:106E300004082408040005002508250803008D52D5
:106E4000FFFFDFFFFFFFFFFFDEFFFFFFFFFF3184DC
:106E5000010042000200010842184220212021289E
:106E6000013001300130013001282128212821285A
:106E7000012801300028002041280018FCF6DFFF1F
:106E800066412118412000202128012801280128DD
:106E9000212821280128013001300130013001284A
:106EA000012042282118001061109EF7DBDE20002F
:106EB00000000000000001002208630843082300CE
:106EC00023002300230023002300230023002300AA
:106ED0002200630822002A42FFFFBFFFDFFFFFFFFF
:106EE000FFFFFFFFFFFFFFFFFFFFFFFFFFFF1DE7AC
:106EF0007EEFFFFFFFFFFFFFFFFFFFFFFFFFFFFF33
:106F0000FEFFFFFFFFFFFFFFBFF7FFFF3CC665105F
:106F1000040004000500050005000400040003004F
:106F2000B073DFFFFFFFFFFFFFFF1EE74308030013
:106F300005080400050805000500050804002729C8
:106F4000BFF7FFFFDEFFFFFFFFFFDFFFDFFF728CFA
:106F5000010042000200010822182220012001281D
:106F600001300030003000300030003000280028B0
:106F70000130013001280128012841287AEEBFFFA5
:106F800066410018412801282128002801300130DD
:106F90000028002800300030003001300130012886
:106FA000012801204220001082189EF71CDF2000DB
:106FB0000000000000000100220042084308020017
:106FC00023002300240024002400240024002400A3
:106FD0004308230002006B4ABFFFFFFFFFFFFFFFD4
:106FE000FFFFFFFFFFFFFFFFFFFFFFFFFFFF1DE7AB
:106FF0007FEFFFFFFFFFFFFFFFFFFFFFFFFFFFFF31
:10700000FFFFDFFFFFFFFEFFFEFFFFFF1AA50A00E5
:1070100025080500060006000500250826080400CE
:10702000EB41FFFFFEFFFEFFDFFFFABD040004009F
:107030000408060806000500250007000A004B109A
:10704000BFDEDEFFFEFFBFFFDFFFBFF7FFFF718C7C
:107050006000620044000208011820280028013066
:1070600000300030002801280130003000380030A6
:10707000003000280028003002404230DBDEFFFFF5
:1070800086410020013021280028003000380028E7
:10709000013800284128202000202130013000281C
:1070A0000030013000200008A208BEE7FCDE010825
:1070B000020800002000200001004508050005002E
:1070C000040022006208220023002400040045007E
:1070D0000600250002004A42FFFFFFFFFFFFFFFFFF
:1070E000FFFFFFFFFFFFFFFFFFFFFFFFFFFF3DE78A
:1070F0007FEFFFFFFFFFFFFFFFFFFFFFFFFFFFFF30
:10710000FFFFFFFFFFFFFEFFFDF7FFF7F67B0A0023
:10711000040005000608060826080500050005000D
:10712000E7205EEFFEFFDEFFFFFF748C030004002C
:107130000400050006000500050008000B08090012
:1071400039ADFFFFDEFFFFFFFFFFDFFFFFFF3084F2
:107150004000010004000310012021300128002814
:1071600001300030012801200020002800282028BC
:10717000002841280028013801380120FBDEFFFFEC
:10718000663900200128012800280028003021301D
:10719000013800280018412020200020002821303C
:1071A00001300130212821108208BEEFDBD601001A
:1071B0000100210820000000010024002600050035
:1071C00024000200010022002200440045000400C7
:1071D0002600250002004A42FFFFFFFFFFFFFFFFDE
:1071E000FFFFFFFFFFFFFFFFFFFFFFFFFFFF3DE789
:1071F0007FEFFFFFFFFFFFFFFFFFFFFFFFFFFFFF2F
:10720000FFFFDFFFFFFFFFFFFEFFFFF7904A0A00CF
:1072100025080500060005002508040005002608CD
:1072200004007BD6FFFFFEFFFFFFAD5A03002408DA
:107230002508040005080500070009004D10090095
:10724000B373FFFFBFF7FFFFDFFFBFF7FFFF14A51B
:1072500003212621030003100120002800282130EB
:107260002138213045412531453904392441C3288D
:107270000028212800280138023842281CDFFFF7A7
:1072800049522541012821280020012821300128C8
:10729000003821304541033144392441C3380020AE
:1072A00000280130013000086208FFF7FCDE0521EC
:1072B000E5200100210021004300030004004500F7
:1072C000440067294521252106196408240044004B
:1072D0002500250002004A42FFFFFFFFFFFFFFFFDE
:1072E000FFFFFFFFFFFFFFFFFFFFFFFFFFFF3EE787
:1072F0007FEFFFFFFFFFFFFFFFFFFFFFFFFFFFFF2E
:10730000FFFFDFFFFFFFFFFFFFFFBFF74C294B0031
:1073100025080500050005000508040005082608E5
:10732000030057ADFFFFFFFFDFFF89310300240893
:10733000250804000400060009000A002C080900C2
:107340002E4ABFF7FFFFFFFFFFFFFFFFFFFF9FF783
:10735000BEFFBDDE050803100228213000280128E9
:1073600000208A727DFFBEF7DFFFBEFF9EFF75B56E
:10737000012800200130013001302228DBDEFFFF30
:107380009EFF7EFFA861012863300128012802309A
:1073900001388340FCF6BEFFBEFF9EFF75C5412845
:1073A0002230013001280120A2181CDFFFFFDFFF7F
:1073B0009CD6631001000200230045000400030076
:1073C0006C4ABFF7DFF7BFF7DFF7B07302002400A6
:1073D0000500250002004A42FFFFFFFFFFFFFFFFFD
:1073E000FFFFFFFFFFFFFFFFFFFFFFFFFFFF3EE786
:1073F0007FEFFFFFFFFFFFFFFFFFFFFFFFFFFFFF2D
:10740000FFFFFFFFFFFFFEFFFFFFFED689084B00D7
:1074100005000500060026080400250805080500EB
:107420000300B07BFFFFFFFF1DE785100300040092
:1074300005080408040006002B080C002C080900AD
:107440004B297FEFFFFFFFFFFFFFFEFFBFF7FFFFAF
:10745000DEFF5FEF040003100120002800284238FF
:107460000028496AFFFFFFFFFFFFDFFFFFFF14A5B2
:10747000002801302338034044486338FCEEFFFF06
:10748000DFFF9FFF686102384338233844400330F0
